{
  "_format": "hh-sol-artifact-1",
  "contractName": "LockAndWithdrawHalf",
  "sourceName": "contracts/LockAndWithdrawhalf.sol",
  "abi": [
    {
      "inputs": [
        {
          "internalType": "uint256",
          "name": "_unlockTime",
          "type": "uint256"
        }
      ],
      "stateMutability": "payable",
      "type": "constructor"
    },
    {
      "anonymous": false,
      "inputs": [
        {
          "indexed": false,
          "internalType": "uint256",
          "name": "amount",
          "type": "uint256"
        },
        {
          "indexed": false,
          "internalType": "uint256",
          "name": "when",
          "type": "uint256"
        }
      ],
      "name": "Withdraw",
      "type": "event"
    },
    {
      "inputs": [],
      "name": "owner",
      "outputs": [
        {
          "internalType": "address payable",
          "name": "",
          "type": "address"
        }
      ],
      "stateMutability": "view",
      "type": "function"
    },
    {
      "inputs": [],
      "name": "unlockTime",
      "outputs": [
        {
          "internalType": "uint256",
          "name": "",
          "type": "uint256"
        }
      ],
      "stateMutability": "view",
      "type": "function"
    },
    {
      "inputs": [],
      "name": "withdrawHalf",
      "outputs": [],
      "stateMutability": "nonpayable",
      "type": "function"
    }
  ],
  "bytecode": "0x608060405260405161066e38038061066e833981810160405281019061002591906100ef565b428111610067576040517f08c379a000000000000000000000000000000000000000000000000000000000815260040161005e9061019f565b60405180910390fd5b80600181905550336000806101000a81548173ffffffffffffffffffffffffffffffffffffffff021916908373ffffffffffffffffffffffffffffffffffffffff160217905550506101bf565b600080fd5b6000819050919050565b6100cc816100b9565b81146100d757600080fd5b50565b6000815190506100e9816100c3565b92915050565b600060208284031215610105576101046100b4565b5b6000610113848285016100da565b91505092915050565b600082825260208201905092915050565b7f4f2074656d706f20646520756e6c6f636b2064657665206573746172206e6f2060008201527f66757475726f0000000000000000000000000000000000000000000000000000602082015250565b600061018960268361011c565b91506101948261012d565b604082019050919050565b600060208201905081810360008301526101b88161017c565b9050919050565b6104a0806101ce6000396000f3fe608060405234801561001057600080fd5b50600436106100415760003560e01c8063251c1aa3146100465780634f5e6253146100645780638da5cb5b1461006e575b600080fd5b61004e61008c565b60405161005b919061025b565b60405180910390f35b61006c610092565b005b61007661021e565b60405161008391906102b7565b60405180910390f35b60015481565b60008054906101000a900473ffffffffffffffffffffffffffffffffffffffff1673ffffffffffffffffffffffffffffffffffffffff163373ffffffffffffffffffffffffffffffffffffffff1614610120576040517f08c379a000000000000000000000000000000000000000000000000000000000815260040161011790610355565b60405180910390fd5b6001544211610164576040517f08c379a000000000000000000000000000000000000000000000000000000000815260040161015b906103c1565b60405180910390fd5b7f56ca301a9219608c91e7bcee90e083c19671d2cdcc96752c7af291cee5f9c8c86002476101929190610410565b426040516101a1929190610441565b60405180910390a160008054906101000a900473ffffffffffffffffffffffffffffffffffffffff1673ffffffffffffffffffffffffffffffffffffffff166108fc6002476101f09190610410565b9081150290604051600060405180830381858888f1935050505015801561021b573d6000803e3d6000fd5b50565b60008054906101000a900473ffffffffffffffffffffffffffffffffffffffff1681565b6000819050919050565b61025581610242565b82525050565b6000602082019050610270600083018461024c565b92915050565b600073ffffffffffffffffffffffffffffffffffffffff82169050919050565b60006102a182610276565b9050919050565b6102b181610296565b82525050565b60006020820190506102cc60008301846102a8565b92915050565b600082825260208201905092915050565b7f736f6d656e7465206f20646f6e6f20646f20736d617274636f6e74726174207060008201527f6f64652073616361720000000000000000000000000000000000000000000000602082015250565b600061033f6029836102d2565b915061034a826102e3565b604082019050919050565b6000602082019050818103600083015261036e81610332565b9050919050565b7f46756e646f732061696e6461206e616f20646973706f6e697665697300000000600082015250565b60006103ab601c836102d2565b91506103b682610375565b602082019050919050565b600060208201905081810360008301526103da8161039e565b9050919050565b7f4e487b7100000000000000000000000000000000000000000000000000000000600052601260045260246000fd5b600061041b82610242565b915061042683610242565b925082610436576104356103e1565b5b828204905092915050565b6000604082019050610456600083018561024c565b610463602083018461024c565b939250505056fea2646970667358221220d81083e46851a42f8622a5333be98a956b1fe1ed5743d23e624506a863ef336e64736f6c63430008130033",
  "linkReferences": {},
  "deployedLinkReferences": {}
}