{
  "_format": "hh-sol-artifact-1",
  "contractName": "LockWithdrawReceive",
  "sourceName": "contracts/LockWithdrawReceive.sol",
  "abi": [
    {
      "inputs": [
        {
          "internalType": "uint256",
          "name": "_unlockTime",
          "type": "uint256"
        }
      ],
      "stateMutability": "payable",
      "type": "constructor"
    },
    {
      "anonymous": false,
      "inputs": [
        {
          "indexed": false,
          "internalType": "uint256",
          "name": "amount",
          "type": "uint256"
        },
        {
          "indexed": false,
          "internalType": "uint256",
          "name": "when",
          "type": "uint256"
        }
      ],
      "name": "Withdraw",
      "type": "event"
    },
    {
      "inputs": [],
      "name": "owner",
      "outputs": [
        {
          "internalType": "address payable",
          "name": "",
          "type": "address"
        }
      ],
      "stateMutability": "view",
      "type": "function"
    },
    {
      "inputs": [],
      "name": "unlockTime",
      "outputs": [
        {
          "internalType": "uint256",
          "name": "",
          "type": "uint256"
        }
      ],
      "stateMutability": "view",
      "type": "function"
    },
    {
      "inputs": [],
      "name": "withdrawHalf",
      "outputs": [],
      "stateMutability": "nonpayable",
      "type": "function"
    },
    {
      "stateMutability": "payable",
      "type": "receive"
    }
  ],
  "bytecode": "0x6080604052604051610693380380610693833981810160405281019061002591906100ef565b428111610067576040517f08c379a000000000000000000000000000000000000000000000000000000000815260040161005e9061019f565b60405180910390fd5b80600181905550336000806101000a81548173ffffffffffffffffffffffffffffffffffffffff021916908373ffffffffffffffffffffffffffffffffffffffff160217905550506101bf565b600080fd5b6000819050919050565b6100cc816100b9565b81146100d757600080fd5b50565b6000815190506100e9816100c3565b92915050565b600060208284031215610105576101046100b4565b5b6000610113848285016100da565b91505092915050565b600082825260208201905092915050565b7f4f2074656d706f20646520756e6c6f636b2064657665206573746172206e6f2060008201527f66757475726f0000000000000000000000000000000000000000000000000000602082015250565b600061018960268361011c565b91506101948261012d565b604082019050919050565b600060208201905081810360008301526101b88161017c565b9050919050565b6104c5806101ce6000396000f3fe6080604052600436106100385760003560e01c8063251c1aa3146100445780634f5e62531461006f5780638da5cb5b146100865761003f565b3661003f57005b600080fd5b34801561005057600080fd5b506100596100b1565b6040516100669190610280565b60405180910390f35b34801561007b57600080fd5b506100846100b7565b005b34801561009257600080fd5b5061009b610243565b6040516100a891906102dc565b60405180910390f35b60015481565b60008054906101000a900473ffffffffffffffffffffffffffffffffffffffff1673ffffffffffffffffffffffffffffffffffffffff163373ffffffffffffffffffffffffffffffffffffffff1614610145576040517f08c379a000000000000000000000000000000000000000000000000000000000815260040161013c9061037a565b60405180910390fd5b6001544211610189576040517f08c379a0000000000000000000000000000000000000000000000000000000008152600401610180906103e6565b60405180910390fd5b7f56ca301a9219608c91e7bcee90e083c19671d2cdcc96752c7af291cee5f9c8c86002476101b79190610435565b426040516101c6929190610466565b60405180910390a160008054906101000a900473ffffffffffffffffffffffffffffffffffffffff1673ffffffffffffffffffffffffffffffffffffffff166108fc6002476102159190610435565b9081150290604051600060405180830381858888f19350505050158015610240573d6000803e3d6000fd5b50565b60008054906101000a900473ffffffffffffffffffffffffffffffffffffffff1681565b6000819050919050565b61027a81610267565b82525050565b60006020820190506102956000830184610271565b92915050565b600073ffffffffffffffffffffffffffffffffffffffff82169050919050565b60006102c68261029b565b9050919050565b6102d6816102bb565b82525050565b60006020820190506102f160008301846102cd565b92915050565b600082825260208201905092915050565b7f736f6d656e7465206f20646f6e6f20646f20736d617274636f6e74726174207060008201527f6f64652073616361720000000000000000000000000000000000000000000000602082015250565b60006103646029836102f7565b915061036f82610308565b604082019050919050565b6000602082019050818103600083015261039381610357565b9050919050565b7f46756e646f732061696e6461206e616f20646973706f6e697665697300000000600082015250565b60006103d0601c836102f7565b91506103db8261039a565b602082019050919050565b600060208201905081810360008301526103ff816103c3565b9050919050565b7f4e487b7100000000000000000000000000000000000000000000000000000000600052601260045260246000fd5b600061044082610267565b915061044b83610267565b92508261045b5761045a610406565b5b828204905092915050565b600060408201905061047b6000830185610271565b6104886020830184610271565b939250505056fea2646970667358221220e50a0ba0bb771d5f1a6d752301f40839a6ad63ac19f1642844a1355e67c7170164736f6c63430008130033",
  "linkReferences": {},
  "deployedLinkReferences": {}
}