{"contracts/MockPool.sol":{"MockPool":{"abi":[{"inputs":[{"internalType":"address[]","name":"_payees","type":"address[]"},{"internalType":"uint256[]","name":"_shares","type":"uint256[]"},{"internalType":"address","name":"_paymentToken","type":"address"}],"stateMutability":"nonpayable","type":"constructor"},{"anonymous":false,"inputs":[{"indexed":true,"internalType":"address","name":"previousOwner","type":"address"},{"indexed":true,"internalType":"address","name":"newOwner","type":"address"}],"name":"OwnershipTransferred","type":"event"},{"inputs":[{"internalType":"address","name":"_transferTo","type":"address"},{"internalType":"address","name":"_token","type":"address"}],"name":"drainTo","outputs":[],"stateMutability":"nonpayable","type":"function"},{"inputs":[],"name":"owner","outputs":[{"internalType":"address","name":"","type":"address"}],"stateMutability":"view","type":"function"},{"inputs":[{"internalType":"uint256","name":"index","type":"uint256"}],"name":"payee","outputs":[{"internalType":"address","name":"","type":"address"}],"stateMutability":"view","type":"function"},{"inputs":[{"internalType":"address","name":"account","type":"address"}],"name":"release","outputs":[],"stateMutability":"nonpayable","type":"function"},{"inputs":[],"name":"renounceOwnership","outputs":[],"stateMutability":"nonpayable","type":"function"},{"inputs":[{"internalType":"address","name":"account","type":"address"}],"name":"shares","outputs":[{"internalType":"uint256","name":"","type":"uint256"}],"stateMutability":"view","type":"function"},{"inputs":[],"name":"totalShares","outputs":[{"internalType":"uint256","name":"","type":"uint256"}],"stateMutability":"view","type":"function"},{"inputs":[{"internalType":"address","name":"newOwner","type":"address"}],"name":"transferOwnership","outputs":[],"stateMutability":"nonpayable","type":"function"}],"evm":{"bytecode":{"linkReferences":{},"object":"60806040523480156200001157600080fd5b50604051620021983803806200219883398181016040528101906200003791906200076e565b8282826200005a6200004e620001a560201b60201c565b620001ad60201b60201c565b8151835114620000a1576040517f08c379a000000000000000000000000000000000000000000000000000000000815260040162000098906200088f565b60405180910390fd5b6000835111620000e8576040517f08c379a0000000000000000000000000000000000000000000000000000000008152600401620000df9062000901565b60405180910390fd5b60005b83518110156200015757620001418482815181106200010f576200010e62000923565b5b60200260200101518483815181106200012d576200012c62000923565b5b60200260200101516200027160201b60201c565b80806200014e9062000981565b915050620000eb565b5080600160006101000a81548173ffffffffffffffffffffffffffffffffffffffff021916908373ffffffffffffffffffffffffffffffffffffffff16021790555050505050505062000bd1565b600033905090565b60008060009054906101000a900473ffffffffffffffffffffffffffffffffffffffff169050816000806101000a81548173ffffffffffffffffffffffffffffffffffffffff021916908373ffffffffffffffffffffffffffffffffffffffff1602179055508173ffffffffffffffffffffffffffffffffffffffff168173ffffffffffffffffffffffffffffffffffffffff167f8be0079c531659141344cd1fd0a4f28419497f9722a3daafe3b4186f6b6457e060405160405180910390a35050565b600073ffffffffffffffffffffffffffffffffffffffff168273ffffffffffffffffffffffffffffffffffffffff1603620002e3576040517f08c379a0000000000000000000000000000000000000000000000000000000008152600401620002da9062000a44565b60405180910390fd5b6000811162000329576040517f08c379a0000000000000000000000000000000000000000000000000000000008152600401620003209062000adc565b60405180910390fd5b6000600560008473ffffffffffffffffffffffffffffffffffffffff1673ffffffffffffffffffffffffffffffffffffffff1681526020019081526020016000205414620003ae576040517f08c379a0000000000000000000000000000000000000000000000000000000008152600401620003a59062000b74565b60405180910390fd5b6004829080600181540180825580915050600190039060005260206000200160009091909190916101000a81548173ffffffffffffffffffffffffffffffffffffffff021916908373ffffffffffffffffffffffffffffffffffffffff16021790555080600560008473ffffffffffffffffffffffffffffffffffffffff1673ffffffffffffffffffffffffffffffffffffffff168152602001908152602001600020819055508060025462000465919062000b96565b6002819055505050565b6000604051905090565b600080fd5b600080fd5b600080fd5b6000601f19601f8301169050919050565b7f4e487b7100000000000000000000000000000000000000000000000000000000600052604160045260246000fd5b620004d38262000488565b810181811067ffffffffffffffff82111715620004f557620004f462000499565b5b80604052505050565b60006200050a6200046f565b9050620005188282620004c8565b919050565b600067ffffffffffffffff8211156200053b576200053a62000499565b5b602082029050602081019050919050565b600080fd5b600073ffffffffffffffffffffffffffffffffffffffff82169050919050565b60006200057e8262000551565b9050919050565b620005908162000571565b81146200059c57600080fd5b50565b600081519050620005b08162000585565b92915050565b6000620005cd620005c7846200051d565b620004fe565b90508083825260208201905060208402830185811115620005f357620005f26200054c565b5b835b818110156200062057806200060b88826200059f565b845260208401935050602081019050620005f5565b5050509392505050565b600082601f83011262000642576200064162000483565b5b815162000654848260208601620005b6565b91505092915050565b600067ffffffffffffffff8211156200067b576200067a62000499565b5b602082029050602081019050919050565b6000819050919050565b620006a1816200068c565b8114620006ad57600080fd5b50565b600081519050620006c18162000696565b92915050565b6000620006de620006d8846200065d565b620004fe565b905080838252602082019050602084028301858111156200070457620007036200054c565b5b835b818110156200073157806200071c8882620006b0565b84526020840193505060208101905062000706565b5050509392505050565b600082601f83011262000753576200075262000483565b5b815162000765848260208601620006c7565b91505092915050565b6000806000606084860312156200078a576200078962000479565b5b600084015167ffffffffffffffff811115620007ab57620007aa6200047e565b5b620007b9868287016200062a565b935050602084015167ffffffffffffffff811115620007dd57620007dc6200047e565b5b620007eb868287016200073b565b9250506040620007fe868287016200059f565b9150509250925092565b600082825260208201905092915050565b7f546f6b656e5061796d656e7453706c69747465723a2070617965657320616e6460008201527f20736861726573206c656e677468206d69736d61746368000000000000000000602082015250565b60006200087760378362000808565b9150620008848262000819565b604082019050919050565b60006020820190508181036000830152620008aa8162000868565b9050919050565b7f546f6b656e5061796d656e7453706c69747465723a206e6f2070617965657300600082015250565b6000620008e9601f8362000808565b9150620008f682620008b1565b602082019050919050565b600060208201905081810360008301526200091c81620008da565b9050919050565b7f4e487b7100000000000000000000000000000000000000000000000000000000600052603260045260246000fd5b7f4e487b7100000000000000000000000000000000000000000000000000000000600052601160045260246000fd5b60006200098e826200068c565b91507fffffffffffffffffffffffffffffffffffffffffffffffffffffffffffffffff8203620009c357620009c262000952565b5b600182019050919050565b7f546f6b656e5061796d656e7453706c69747465723a206163636f756e7420697360008201527f20746865207a65726f2061646472657373000000000000000000000000000000602082015250565b600062000a2c60318362000808565b915062000a3982620009ce565b604082019050919050565b6000602082019050818103600083015262000a5f8162000a1d565b9050919050565b7f546f6b656e5061796d656e7453706c69747465723a207368617265732061726560008201527f2030000000000000000000000000000000000000000000000000000000000000602082015250565b600062000ac460228362000808565b915062000ad18262000a66565b604082019050919050565b6000602082019050818103600083015262000af78162000ab5565b9050919050565b7f546f6b656e5061796d656e7453706c69747465723a206163636f756e7420616c60008201527f7265616479206861732073686172657300000000000000000000000000000000602082015250565b600062000b5c60308362000808565b915062000b698262000afe565b604082019050919050565b6000602082019050818103600083015262000b8f8162000b4d565b9050919050565b600062000ba3826200068c565b915062000bb0836200068c565b925082820190508082111562000bcb5762000bca62000952565b5b92915050565b6115b78062000be16000396000f3fe608060405234801561001057600080fd5b50600436106100885760003560e01c80638da5cb5b1161005b5780638da5cb5b14610101578063ce7c2ac21461011f578063da94d7f61461014f578063f2fde38b1461016b57610088565b8063191655871461008d5780633a98ef39146100a9578063715018a6146100c75780638b83209b146100d1575b600080fd5b6100a760048036038101906100a29190610c3f565b610187565b005b6100b1610493565b6040516100be9190610c85565b60405180910390f35b6100cf61049d565b005b6100eb60048036038101906100e69190610ccc565b6104b1565b6040516100f89190610d08565b60405180910390f35b6101096104f9565b6040516101169190610d08565b60405180910390f35b61013960048036038101906101349190610c3f565b610522565b6040516101469190610c85565b60405180910390f35b61016960048036038101906101649190610d23565b61056b565b005b61018560048036038101906101809190610c3f565b6106f4565b005b6000600560008373ffffffffffffffffffffffffffffffffffffffff1673ffffffffffffffffffffffffffffffffffffffff1681526020019081526020016000205411610209576040517f08c379a000000000000000000000000000000000000000000000000000000000815260040161020090610de6565b60405180910390fd5b6000600354600160009054906101000a900473ffffffffffffffffffffffffffffffffffffffff1673ffffffffffffffffffffffffffffffffffffffff166370a08231306040518263ffffffff1660e01b81526004016102699190610d08565b602060405180830381865afa158015610286573d6000803e3d6000fd5b505050506040513d601f19601f820116820180604052508101906102aa9190610e1b565b6102b49190610e77565b90506000600660008473ffffffffffffffffffffffffffffffffffffffff1673ffffffffffffffffffffffffffffffffffffffff16815260200190815260200160002054600254600560008673ffffffffffffffffffffffffffffffffffffffff1673ffffffffffffffffffffffffffffffffffffffff16815260200190815260200160002054846103469190610eab565b6103509190610f1c565b61035a9190610f4d565b90506000810361039f576040517f08c379a000000000000000000000000000000000000000000000000000000000815260040161039690610ff3565b60405180910390fd5b80600660008573ffffffffffffffffffffffffffffffffffffffff1673ffffffffffffffffffffffffffffffffffffffff168152602001908152602001600020546103ea9190610e77565b600660008573ffffffffffffffffffffffffffffffffffffffff1673ffffffffffffffffffffffffffffffffffffffff168152602001908152602001600020819055508060035461043b9190610e77565b60038190555061048e8382600160009054906101000a900473ffffffffffffffffffffffffffffffffffffffff1673ffffffffffffffffffffffffffffffffffffffff166107779092919063ffffffff16565b505050565b6000600254905090565b6104a56107fd565b6104af600061087b565b565b6000600482815481106104c7576104c6611013565b5b9060005260206000200160009054906101000a900473ffffffffffffffffffffffffffffffffffffffff169050919050565b60008060009054906101000a900473ffffffffffffffffffffffffffffffffffffffff16905090565b6000600560008373ffffffffffffffffffffffffffffffffffffffff1673ffffffffffffffffffffffffffffffffffffffff168152602001908152602001600020549050919050565b6105736107fd565b600160009054906101000a900473ffffffffffffffffffffffffffffffffffffffff1673ffffffffffffffffffffffffffffffffffffffff168173ffffffffffffffffffffffffffffffffffffffff1603610603576040517f08c379a00000000000000000000000000000000000000000000000000000000081526004016105fa906110b4565b60405180910390fd5b60008173ffffffffffffffffffffffffffffffffffffffff166370a08231306040518263ffffffff1660e01b815260040161063e9190610d08565b602060405180830381865afa15801561065b573d6000803e3d6000fd5b505050506040513d601f19601f8201168201806040525081019061067f9190610e1b565b9050600081116106c4576040517f08c379a00000000000000000000000000000000000000000000000000000000081526004016106bb90611146565b60405180910390fd5b6106ef83828473ffffffffffffffffffffffffffffffffffffffff166107779092919063ffffffff16565b505050565b6106fc6107fd565b600073ffffffffffffffffffffffffffffffffffffffff168173ffffffffffffffffffffffffffffffffffffffff160361076b576040517f08c379a0000000000000000000000000000000000000000000000000000000008152600401610762906111d8565b60405180910390fd5b6107748161087b565b50565b6107f88363a9059cbb60e01b84846040516024016107969291906111f8565b604051602081830303815290604052907bffffffffffffffffffffffffffffffffffffffffffffffffffffffff19166020820180517bffffffffffffffffffffffffffffffffffffffffffffffffffffffff838183161783525050505061093f565b505050565b610805610a07565b73ffffffffffffffffffffffffffffffffffffffff166108236104f9565b73ffffffffffffffffffffffffffffffffffffffff1614610879576040517f08c379a00000000000000000000000000000000000000000000000000000000081526004016108709061126d565b60405180910390fd5b565b60008060009054906101000a900473ffffffffffffffffffffffffffffffffffffffff169050816000806101000a81548173ffffffffffffffffffffffffffffffffffffffff021916908373ffffffffffffffffffffffffffffffffffffffff1602179055508173ffffffffffffffffffffffffffffffffffffffff168173ffffffffffffffffffffffffffffffffffffffff167f8be0079c531659141344cd1fd0a4f28419497f9722a3daafe3b4186f6b6457e060405160405180910390a35050565b60006109a1826040518060400160405280602081526020017f5361666545524332303a206c6f772d6c6576656c2063616c6c206661696c65648152508573ffffffffffffffffffffffffffffffffffffffff16610a0f9092919063ffffffff16565b90506000815114806109c35750808060200190518101906109c291906112c5565b5b610a02576040517f08c379a00000000000000000000000000000000000000000000000000000000081526004016109f990611364565b60405180910390fd5b505050565b600033905090565b6060610a1e8484600085610a27565b90509392505050565b606082471015610a6c576040517f08c379a0000000000000000000000000000000000000000000000000000000008152600401610a63906113f6565b60405180910390fd5b6000808673ffffffffffffffffffffffffffffffffffffffff168587604051610a959190611487565b60006040518083038185875af1925050503d8060008114610ad2576040519150601f19603f3d011682016040523d82523d6000602084013e610ad7565b606091505b5091509150610ae887838387610af4565b92505050949350505050565b60608315610b56576000835103610b4e57610b0e85610b69565b610b4d576040517f08c379a0000000000000000000000000000000000000000000000000000000008152600401610b44906114ea565b60405180910390fd5b5b829050610b61565b610b608383610b8c565b5b949350505050565b6000808273ffffffffffffffffffffffffffffffffffffffff163b119050919050565b600082511115610b9f5781518083602001fd5b806040517f08c379a0000000000000000000000000000000000000000000000000000000008152600401610bd3919061155f565b60405180910390fd5b600080fd5b600073ffffffffffffffffffffffffffffffffffffffff82169050919050565b6000610c0c82610be1565b9050919050565b610c1c81610c01565b8114610c2757600080fd5b50565b600081359050610c3981610c13565b92915050565b600060208284031215610c5557610c54610bdc565b5b6000610c6384828501610c2a565b91505092915050565b6000819050919050565b610c7f81610c6c565b82525050565b6000602082019050610c9a6000830184610c76565b92915050565b610ca981610c6c565b8114610cb457600080fd5b50565b600081359050610cc681610ca0565b92915050565b600060208284031215610ce257610ce1610bdc565b5b6000610cf084828501610cb7565b91505092915050565b610d0281610c01565b82525050565b6000602082019050610d1d6000830184610cf9565b92915050565b60008060408385031215610d3a57610d39610bdc565b5b6000610d4885828601610c2a565b9250506020610d5985828601610c2a565b9150509250929050565b600082825260208201905092915050565b7f546f6b656e5061796d656e7453706c69747465723a206163636f756e7420686160008201527f73206e6f20736861726573000000000000000000000000000000000000000000602082015250565b6000610dd0602b83610d63565b9150610ddb82610d74565b604082019050919050565b60006020820190508181036000830152610dff81610dc3565b9050919050565b600081519050610e1581610ca0565b92915050565b600060208284031215610e3157610e30610bdc565b5b6000610e3f84828501610e06565b91505092915050565b7f4e487b7100000000000000000000000000000000000000000000000000000000600052601160045260246000fd5b6000610e8282610c6c565b9150610e8d83610c6c565b9250828201905080821115610ea557610ea4610e48565b5b92915050565b6000610eb682610c6c565b9150610ec183610c6c565b9250828202610ecf81610c6c565b91508282048414831517610ee657610ee5610e48565b5b5092915050565b7f4e487b7100000000000000000000000000000000000000000000000000000000600052601260045260246000fd5b6000610f2782610c6c565b9150610f3283610c6c565b925082610f4257610f41610eed565b5b828204905092915050565b6000610f5882610c6c565b9150610f6383610c6c565b9250828203905081811115610f7b57610f7a610e48565b5b92915050565b7f546f6b656e5061796d656e7453706c69747465723a206163636f756e7420697360008201527f206e6f7420647565207061796d656e7400000000000000000000000000000000602082015250565b6000610fdd603083610d63565b9150610fe882610f81565b604082019050919050565b6000602082019050818103600083015261100c81610fd0565b9050919050565b7f4e487b7100000000000000000000000000000000000000000000000000000000600052603260045260246000fd5b7f4d6f636b506f6f6c3a20546f6b656e20746f20647261696e206973205061796d60008201527f656e74546f6b656e000000000000000000000000000000000000000000000000602082015250565b600061109e602883610d63565b91506110a982611042565b604082019050919050565b600060208201905081810360008301526110cd81611091565b9050919050565b7f4d6f636b506f6f6c3a20546f6b656e20746f20647261696e2062616c616e636560008201527f2069732030000000000000000000000000000000000000000000000000000000602082015250565b6000611130602583610d63565b915061113b826110d4565b604082019050919050565b6000602082019050818103600083015261115f81611123565b9050919050565b7f4f776e61626c653a206e6577206f776e657220697320746865207a65726f206160008201527f6464726573730000000000000000000000000000000000000000000000000000602082015250565b60006111c2602683610d63565b91506111cd82611166565b604082019050919050565b600060208201905081810360008301526111f1816111b5565b9050919050565b600060408201905061120d6000830185610cf9565b61121a6020830184610c76565b9392505050565b7f4f776e61626c653a2063616c6c6572206973206e6f7420746865206f776e6572600082015250565b6000611257602083610d63565b915061126282611221565b602082019050919050565b600060208201905081810360008301526112868161124a565b9050919050565b60008115159050919050565b6112a28161128d565b81146112ad57600080fd5b50565b6000815190506112bf81611299565b92915050565b6000602082840312156112db576112da610bdc565b5b60006112e9848285016112b0565b91505092915050565b7f5361666545524332303a204552433230206f7065726174696f6e20646964206e60008201527f6f74207375636365656400000000000000000000000000000000000000000000602082015250565b600061134e602a83610d63565b9150611359826112f2565b604082019050919050565b6000602082019050818103600083015261137d81611341565b9050919050565b7f416464726573733a20696e73756666696369656e742062616c616e636520666f60008201527f722063616c6c0000000000000000000000000000000000000000000000000000602082015250565b60006113e0602683610d63565b91506113eb82611384565b604082019050919050565b6000602082019050818103600083015261140f816113d3565b9050919050565b600081519050919050565b600081905092915050565b60005b8381101561144a57808201518184015260208101905061142f565b60008484015250505050565b600061146182611416565b61146b8185611421565b935061147b81856020860161142c565b80840191505092915050565b60006114938284611456565b915081905092915050565b7f416464726573733a2063616c6c20746f206e6f6e2d636f6e7472616374000000600082015250565b60006114d4601d83610d63565b91506114df8261149e565b602082019050919050565b60006020820190508181036000830152611503816114c7565b9050919050565b600081519050919050565b6000601f19601f8301169050919050565b60006115318261150a565b61153b8185610d63565b935061154b81856020860161142c565b61155481611515565b840191505092915050565b600060208201905081810360008301526115798184611526565b90509291505056fea2646970667358221220e11efa14f566dea1c95b5268248d35ed2ee4ec2f337f824910a63637e512af7464736f6c63430008130033","opcodes":"PUSH1 0x80 PUSH1 0x40 MSTORE CALLVALUE DUP1 ISZERO PUSH3 0x11 JUMPI PUSH1 0x0 DUP1 REVERT JUMPDEST POP PUSH1 0x40 MLOAD PUSH3 0x2198 CODESIZE SUB DUP1 PUSH3 0x2198 DUP4 CODECOPY DUP2 DUP2 ADD PUSH1 0x40 MSTORE DUP2 ADD SWAP1 PUSH3 0x37 SWAP2 SWAP1 PUSH3 0x76E JUMP JUMPDEST DUP3 DUP3 DUP3 PUSH3 0x5A PUSH3 0x4E PUSH3 0x1A5 PUSH1 0x20 SHL PUSH1 0x20 SHR JUMP JUMPDEST PUSH3 0x1AD PUSH1 0x20 SHL PUSH1 0x20 SHR JUMP JUMPDEST DUP2 MLOAD DUP4 MLOAD EQ PUSH3 0xA1 JUMPI PUSH1 0x40 MLOAD PUSH32 0x8C379A000000000000000000000000000000000000000000000000000000000 DUP2 MSTORE PUSH1 0x4 ADD PUSH3 0x98 SWAP1 PUSH3 0x88F JUMP JUMPDEST PUSH1 0x40 MLOAD DUP1 SWAP2 SUB SWAP1 REVERT JUMPDEST PUSH1 0x0 DUP4 MLOAD GT PUSH3 0xE8 JUMPI PUSH1 0x40 MLOAD PUSH32 0x8C379A000000000000000000000000000000000000000000000000000000000 DUP2 MSTORE PUSH1 0x4 ADD PUSH3 0xDF SWAP1 PUSH3 0x901 JUMP JUMPDEST PUSH1 0x40 MLOAD DUP1 SWAP2 SUB SWAP1 REVERT JUMPDEST PUSH1 0x0 JUMPDEST DUP4 MLOAD DUP2 LT ISZERO PUSH3 0x157 JUMPI PUSH3 0x141 DUP5 DUP3 DUP2 MLOAD DUP2 LT PUSH3 0x10F JUMPI PUSH3 0x10E PUSH3 0x923 JUMP JUMPDEST JUMPDEST PUSH1 0x20 MUL PUSH1 0x20 ADD ADD MLOAD DUP5 DUP4 DUP2 MLOAD DUP2 LT PUSH3 0x12D JUMPI PUSH3 0x12C PUSH3 0x923 JUMP JUMPDEST JUMPDEST PUSH1 0x20 MUL PUSH1 0x20 ADD ADD MLOAD PUSH3 0x271 PUSH1 0x20 SHL PUSH1 0x20 SHR JUMP JUMPDEST DUP1 DUP1 PUSH3 0x14E SWAP1 PUSH3 0x981 JUMP JUMPDEST SWAP2 POP POP PUSH3 0xEB JUMP JUMPDEST POP DUP1 PUSH1 0x1 PUSH1 0x0 PUSH2 0x100 EXP DUP2 SLOAD DUP2 PUSH20 0xFFFFFFFFFFFFFFFFFFFFFFFFFFFFFFFFFFFFFFFF MUL NOT AND SWAP1 DUP4 PUSH20 0xFFFFFFFFFFFFFFFFFFFFFFFFFFFFFFFFFFFFFFFF AND MUL OR SWAP1 SSTORE POP POP POP POP POP POP POP PUSH3 0xBD1 JUMP JUMPDEST PUSH1 0x0 CALLER SWAP1 POP SWAP1 JUMP JUMPDEST PUSH1 0x0 DUP1 PUSH1 0x0 SWAP1 SLOAD SWAP1 PUSH2 0x100 EXP SWAP1 DIV PUSH20 0xFFFFFFFFFFFFFFFFFFFFFFFFFFFFFFFFFFFFFFFF AND SWAP1 POP DUP2 PUSH1 0x0 DUP1 PUSH2 0x100 EXP DUP2 SLOAD DUP2 PUSH20 0xFFFFFFFFFFFFFFFFFFFFFFFFFFFFFFFFFFFFFFFF MUL NOT AND SWAP1 DUP4 PUSH20 0xFFFFFFFFFFFFFFFFFFFFFFFFFFFFFFFFFFFFFFFF AND MUL OR SWAP1 SSTORE POP DUP2 PUSH20 0xFFFFFFFFFFFFFFFFFFFFFFFFFFFFFFFFFFFFFFFF AND DUP2 PUSH20 0xFFFFFFFFFFFFFFFFFFFFFFFFFFFFFFFFFFFFFFFF AND PUSH32 0x8BE0079C531659141344CD1FD0A4F28419497F9722A3DAAFE3B4186F6B6457E0 PUSH1 0x40 MLOAD PUSH1 0x40 MLOAD DUP1 SWAP2 SUB SWAP1 LOG3 POP POP JUMP JUMPDEST PUSH1 0x0 PUSH20 0xFFFFFFFFFFFFFFFFFFFFFFFFFFFFFFFFFFFFFFFF AND DUP3 PUSH20 0xFFFFFFFFFFFFFFFFFFFFFFFFFFFFFFFFFFFFFFFF AND SUB PUSH3 0x2E3 JUMPI PUSH1 0x40 MLOAD PUSH32 0x8C379A000000000000000000000000000000000000000000000000000000000 DUP2 MSTORE PUSH1 0x4 ADD PUSH3 0x2DA SWAP1 PUSH3 0xA44 JUMP JUMPDEST PUSH1 0x40 MLOAD DUP1 SWAP2 SUB SWAP1 REVERT JUMPDEST PUSH1 0x0 DUP2 GT PUSH3 0x329 JUMPI PUSH1 0x40 MLOAD PUSH32 0x8C379A000000000000000000000000000000000000000000000000000000000 DUP2 MSTORE PUSH1 0x4 ADD PUSH3 0x320 SWAP1 PUSH3 0xADC JUMP JUMPDEST PUSH1 0x40 MLOAD DUP1 SWAP2 SUB SWAP1 REVERT JUMPDEST PUSH1 0x0 PUSH1 0x5 PUSH1 0x0 DUP5 PUSH20 0xFFFFFFFFFFFFFFFFFFFFFFFFFFFFFFFFFFFFFFFF AND PUSH20 0xFFFFFFFFFFFFFFFFFFFFFFFFFFFFFFFFFFFFFFFF AND DUP2 MSTORE PUSH1 0x20 ADD SWAP1 DUP2 MSTORE PUSH1 0x20 ADD PUSH1 0x0 KECCAK256 SLOAD EQ PUSH3 0x3AE JUMPI PUSH1 0x40 MLOAD PUSH32 0x8C379A000000000000000000000000000000000000000000000000000000000 DUP2 MSTORE PUSH1 0x4 ADD PUSH3 0x3A5 SWAP1 PUSH3 0xB74 JUMP JUMPDEST PUSH1 0x40 MLOAD DUP1 SWAP2 SUB SWAP1 REVERT JUMPDEST PUSH1 0x4 DUP3 SWAP1 DUP1 PUSH1 0x1 DUP2 SLOAD ADD DUP1 DUP3 SSTORE DUP1 SWAP2 POP POP PUSH1 0x1 SWAP1 SUB SWAP1 PUSH1 0x0 MSTORE PUSH1 0x20 PUSH1 0x0 KECCAK256 ADD PUSH1 0x0 SWAP1 SWAP2 SWAP1 SWAP2 SWAP1 SWAP2 PUSH2 0x100 EXP DUP2 SLOAD DUP2 PUSH20 0xFFFFFFFFFFFFFFFFFFFFFFFFFFFFFFFFFFFFFFFF MUL NOT AND SWAP1 DUP4 PUSH20 0xFFFFFFFFFFFFFFFFFFFFFFFFFFFFFFFFFFFFFFFF AND MUL OR SWAP1 SSTORE POP DUP1 PUSH1 0x5 PUSH1 0x0 DUP5 PUSH20 0xFFFFFFFFFFFFFFFFFFFFFFFFFFFFFFFFFFFFFFFF AND PUSH20 0xFFFFFFFFFFFFFFFFFFFFFFFFFFFFFFFFFFFFFFFF AND DUP2 MSTORE PUSH1 0x20 ADD SWAP1 DUP2 MSTORE PUSH1 0x20 ADD PUSH1 0x0 KECCAK256 DUP2 SWAP1 SSTORE POP DUP1 PUSH1 0x2 SLOAD PUSH3 0x465 SWAP2 SWAP1 PUSH3 0xB96 JUMP JUMPDEST PUSH1 0x2 DUP2 SWAP1 SSTORE POP POP POP JUMP JUMPDEST PUSH1 0x0 PUSH1 0x40 MLOAD SWAP1 POP SWAP1 JUMP JUMPDEST PUSH1 0x0 DUP1 REVERT JUMPDEST PUSH1 0x0 DUP1 REVERT JUMPDEST PUSH1 0x0 DUP1 REVERT JUMPDEST PUSH1 0x0 PUSH1 0x1F NOT PUSH1 0x1F DUP4 ADD AND SWAP1 POP SWAP2 SWAP1 POP JUMP JUMPDEST PUSH32 0x4E487B7100000000000000000000000000000000000000000000000000000000 PUSH1 0x0 MSTORE PUSH1 0x41 PUSH1 0x4 MSTORE PUSH1 0x24 PUSH1 0x0 REVERT JUMPDEST PUSH3 0x4D3 DUP3 PUSH3 0x488 JUMP JUMPDEST DUP2 ADD DUP2 DUP2 LT PUSH8 0xFFFFFFFFFFFFFFFF DUP3 GT OR ISZERO PUSH3 0x4F5 JUMPI PUSH3 0x4F4 PUSH3 0x499 JUMP JUMPDEST JUMPDEST DUP1 PUSH1 0x40 MSTORE POP POP POP JUMP JUMPDEST PUSH1 0x0 PUSH3 0x50A PUSH3 0x46F JUMP JUMPDEST SWAP1 POP PUSH3 0x518 DUP3 DUP3 PUSH3 0x4C8 JUMP JUMPDEST SWAP2 SWAP1 POP JUMP JUMPDEST PUSH1 0x0 PUSH8 0xFFFFFFFFFFFFFFFF DUP3 GT ISZERO PUSH3 0x53B JUMPI PUSH3 0x53A PUSH3 0x499 JUMP JUMPDEST JUMPDEST PUSH1 0x20 DUP3 MUL SWAP1 POP PUSH1 0x20 DUP2 ADD SWAP1 POP SWAP2 SWAP1 POP JUMP JUMPDEST PUSH1 0x0 DUP1 REVERT JUMPDEST PUSH1 0x0 PUSH20 0xFFFFFFFFFFFFFFFFFFFFFFFFFFFFFFFFFFFFFFFF DUP3 AND SWAP1 POP SWAP2 SWAP1 POP JUMP JUMPDEST PUSH1 0x0 PUSH3 0x57E DUP3 PUSH3 0x551 JUMP JUMPDEST SWAP1 POP SWAP2 SWAP1 POP JUMP JUMPDEST PUSH3 0x590 DUP2 PUSH3 0x571 JUMP JUMPDEST DUP2 EQ PUSH3 0x59C JUMPI PUSH1 0x0 DUP1 REVERT JUMPDEST POP JUMP JUMPDEST PUSH1 0x0 DUP2 MLOAD SWAP1 POP PUSH3 0x5B0 DUP2 PUSH3 0x585 JUMP JUMPDEST SWAP3 SWAP2 POP POP JUMP JUMPDEST PUSH1 0x0 PUSH3 0x5CD PUSH3 0x5C7 DUP5 PUSH3 0x51D JUMP JUMPDEST PUSH3 0x4FE JUMP JUMPDEST SWAP1 POP DUP1 DUP4 DUP3 MSTORE PUSH1 0x20 DUP3 ADD SWAP1 POP PUSH1 0x20 DUP5 MUL DUP4 ADD DUP6 DUP2 GT ISZERO PUSH3 0x5F3 JUMPI PUSH3 0x5F2 PUSH3 0x54C JUMP JUMPDEST JUMPDEST DUP4 JUMPDEST DUP2 DUP2 LT ISZERO PUSH3 0x620 JUMPI DUP1 PUSH3 0x60B DUP9 DUP3 PUSH3 0x59F JUMP JUMPDEST DUP5 MSTORE PUSH1 0x20 DUP5 ADD SWAP4 POP POP PUSH1 0x20 DUP2 ADD SWAP1 POP PUSH3 0x5F5 JUMP JUMPDEST POP POP POP SWAP4 SWAP3 POP POP POP JUMP JUMPDEST PUSH1 0x0 DUP3 PUSH1 0x1F DUP4 ADD SLT PUSH3 0x642 JUMPI PUSH3 0x641 PUSH3 0x483 JUMP JUMPDEST JUMPDEST DUP2 MLOAD PUSH3 0x654 DUP5 DUP3 PUSH1 0x20 DUP7 ADD PUSH3 0x5B6 JUMP JUMPDEST SWAP2 POP POP SWAP3 SWAP2 POP POP JUMP JUMPDEST PUSH1 0x0 PUSH8 0xFFFFFFFFFFFFFFFF DUP3 GT ISZERO PUSH3 0x67B JUMPI PUSH3 0x67A PUSH3 0x499 JUMP JUMPDEST JUMPDEST PUSH1 0x20 DUP3 MUL SWAP1 POP PUSH1 0x20 DUP2 ADD SWAP1 POP SWAP2 SWAP1 POP JUMP JUMPDEST PUSH1 0x0 DUP2 SWAP1 POP SWAP2 SWAP1 POP JUMP JUMPDEST PUSH3 0x6A1 DUP2 PUSH3 0x68C JUMP JUMPDEST DUP2 EQ PUSH3 0x6AD JUMPI PUSH1 0x0 DUP1 REVERT JUMPDEST POP JUMP JUMPDEST PUSH1 0x0 DUP2 MLOAD SWAP1 POP PUSH3 0x6C1 DUP2 PUSH3 0x696 JUMP JUMPDEST SWAP3 SWAP2 POP POP JUMP JUMPDEST PUSH1 0x0 PUSH3 0x6DE PUSH3 0x6D8 DUP5 PUSH3 0x65D JUMP JUMPDEST PUSH3 0x4FE JUMP JUMPDEST SWAP1 POP DUP1 DUP4 DUP3 MSTORE PUSH1 0x20 DUP3 ADD SWAP1 POP PUSH1 0x20 DUP5 MUL DUP4 ADD DUP6 DUP2 GT ISZERO PUSH3 0x704 JUMPI PUSH3 0x703 PUSH3 0x54C JUMP JUMPDEST JUMPDEST DUP4 JUMPDEST DUP2 DUP2 LT ISZERO PUSH3 0x731 JUMPI DUP1 PUSH3 0x71C DUP9 DUP3 PUSH3 0x6B0 JUMP JUMPDEST DUP5 MSTORE PUSH1 0x20 DUP5 ADD SWAP4 POP POP PUSH1 0x20 DUP2 ADD SWAP1 POP PUSH3 0x706 JUMP JUMPDEST POP POP POP SWAP4 SWAP3 POP POP POP JUMP JUMPDEST PUSH1 0x0 DUP3 PUSH1 0x1F DUP4 ADD SLT PUSH3 0x753 JUMPI PUSH3 0x752 PUSH3 0x483 JUMP JUMPDEST JUMPDEST DUP2 MLOAD PUSH3 0x765 DUP5 DUP3 PUSH1 0x20 DUP7 ADD PUSH3 0x6C7 JUMP JUMPDEST SWAP2 POP POP SWAP3 SWAP2 POP POP JUMP JUMPDEST PUSH1 0x0 DUP1 PUSH1 0x0 PUSH1 0x60 DUP5 DUP7 SUB SLT ISZERO PUSH3 0x78A JUMPI PUSH3 0x789 PUSH3 0x479 JUMP JUMPDEST JUMPDEST PUSH1 0x0 DUP5 ADD MLOAD PUSH8 0xFFFFFFFFFFFFFFFF DUP2 GT ISZERO PUSH3 0x7AB JUMPI PUSH3 0x7AA PUSH3 0x47E JUMP JUMPDEST JUMPDEST PUSH3 0x7B9 DUP7 DUP3 DUP8 ADD PUSH3 0x62A JUMP JUMPDEST SWAP4 POP POP PUSH1 0x20 DUP5 ADD MLOAD PUSH8 0xFFFFFFFFFFFFFFFF DUP2 GT ISZERO PUSH3 0x7DD JUMPI PUSH3 0x7DC PUSH3 0x47E JUMP JUMPDEST JUMPDEST PUSH3 0x7EB DUP7 DUP3 DUP8 ADD PUSH3 0x73B JUMP JUMPDEST SWAP3 POP POP PUSH1 0x40 PUSH3 0x7FE DUP7 DUP3 DUP8 ADD PUSH3 0x59F JUMP JUMPDEST SWAP2 POP POP SWAP3 POP SWAP3 POP SWAP3 JUMP JUMPDEST PUSH1 0x0 DUP3 DUP3 MSTORE PUSH1 0x20 DUP3 ADD SWAP1 POP SWAP3 SWAP2 POP POP JUMP JUMPDEST PUSH32 0x546F6B656E5061796D656E7453706C69747465723A2070617965657320616E64 PUSH1 0x0 DUP3 ADD MSTORE PUSH32 0x20736861726573206C656E677468206D69736D61746368000000000000000000 PUSH1 0x20 DUP3 ADD MSTORE POP JUMP JUMPDEST PUSH1 0x0 PUSH3 0x877 PUSH1 0x37 DUP4 PUSH3 0x808 JUMP JUMPDEST SWAP2 POP PUSH3 0x884 DUP3 PUSH3 0x819 JUMP JUMPDEST PUSH1 0x40 DUP3 ADD SWAP1 POP SWAP2 SWAP1 POP JUMP JUMPDEST PUSH1 0x0 PUSH1 0x20 DUP3 ADD SWAP1 POP DUP2 DUP2 SUB PUSH1 0x0 DUP4 ADD MSTORE PUSH3 0x8AA DUP2 PUSH3 0x868 JUMP JUMPDEST SWAP1 POP SWAP2 SWAP1 POP JUMP JUMPDEST PUSH32 0x546F6B656E5061796D656E7453706C69747465723A206E6F2070617965657300 PUSH1 0x0 DUP3 ADD MSTORE POP JUMP JUMPDEST PUSH1 0x0 PUSH3 0x8E9 PUSH1 0x1F DUP4 PUSH3 0x808 JUMP JUMPDEST SWAP2 POP PUSH3 0x8F6 DUP3 PUSH3 0x8B1 JUMP JUMPDEST PUSH1 0x20 DUP3 ADD SWAP1 POP SWAP2 SWAP1 POP JUMP JUMPDEST PUSH1 0x0 PUSH1 0x20 DUP3 ADD SWAP1 POP DUP2 DUP2 SUB PUSH1 0x0 DUP4 ADD MSTORE PUSH3 0x91C DUP2 PUSH3 0x8DA JUMP JUMPDEST SWAP1 POP SWAP2 SWAP1 POP JUMP JUMPDEST PUSH32 0x4E487B7100000000000000000000000000000000000000000000000000000000 PUSH1 0x0 MSTORE PUSH1 0x32 PUSH1 0x4 MSTORE PUSH1 0x24 PUSH1 0x0 REVERT JUMPDEST PUSH32 0x4E487B7100000000000000000000000000000000000000000000000000000000 PUSH1 0x0 MSTORE PUSH1 0x11 PUSH1 0x4 MSTORE PUSH1 0x24 PUSH1 0x0 REVERT JUMPDEST PUSH1 0x0 PUSH3 0x98E DUP3 PUSH3 0x68C JUMP JUMPDEST SWAP2 POP PUSH32 0xFFFFFFFFFFFFFFFFFFFFFFFFFFFFFFFFFFFFFFFFFFFFFFFFFFFFFFFFFFFFFFFF DUP3 SUB PUSH3 0x9C3 JUMPI PUSH3 0x9C2 PUSH3 0x952 JUMP JUMPDEST JUMPDEST PUSH1 0x1 DUP3 ADD SWAP1 POP SWAP2 SWAP1 POP JUMP JUMPDEST PUSH32 0x546F6B656E5061796D656E7453706C69747465723A206163636F756E74206973 PUSH1 0x0 DUP3 ADD MSTORE PUSH32 0x20746865207A65726F2061646472657373000000000000000000000000000000 PUSH1 0x20 DUP3 ADD MSTORE POP JUMP JUMPDEST PUSH1 0x0 PUSH3 0xA2C PUSH1 0x31 DUP4 PUSH3 0x808 JUMP JUMPDEST SWAP2 POP PUSH3 0xA39 DUP3 PUSH3 0x9CE JUMP JUMPDEST PUSH1 0x40 DUP3 ADD SWAP1 POP SWAP2 SWAP1 POP JUMP JUMPDEST PUSH1 0x0 PUSH1 0x20 DUP3 ADD SWAP1 POP DUP2 DUP2 SUB PUSH1 0x0 DUP4 ADD MSTORE PUSH3 0xA5F DUP2 PUSH3 0xA1D JUMP JUMPDEST SWAP1 POP SWAP2 SWAP1 POP JUMP JUMPDEST PUSH32 0x546F6B656E5061796D656E7453706C69747465723A2073686172657320617265 PUSH1 0x0 DUP3 ADD MSTORE PUSH32 0x2030000000000000000000000000000000000000000000000000000000000000 PUSH1 0x20 DUP3 ADD MSTORE POP JUMP JUMPDEST PUSH1 0x0 PUSH3 0xAC4 PUSH1 0x22 DUP4 PUSH3 0x808 JUMP JUMPDEST SWAP2 POP PUSH3 0xAD1 DUP3 PUSH3 0xA66 JUMP JUMPDEST PUSH1 0x40 DUP3 ADD SWAP1 POP SWAP2 SWAP1 POP JUMP JUMPDEST PUSH1 0x0 PUSH1 0x20 DUP3 ADD SWAP1 POP DUP2 DUP2 SUB PUSH1 0x0 DUP4 ADD MSTORE PUSH3 0xAF7 DUP2 PUSH3 0xAB5 JUMP JUMPDEST SWAP1 POP SWAP2 SWAP1 POP JUMP JUMPDEST PUSH32 0x546F6B656E5061796D656E7453706C69747465723A206163636F756E7420616C PUSH1 0x0 DUP3 ADD MSTORE PUSH32 0x7265616479206861732073686172657300000000000000000000000000000000 PUSH1 0x20 DUP3 ADD MSTORE POP JUMP JUMPDEST PUSH1 0x0 PUSH3 0xB5C PUSH1 0x30 DUP4 PUSH3 0x808 JUMP JUMPDEST SWAP2 POP PUSH3 0xB69 DUP3 PUSH3 0xAFE JUMP JUMPDEST PUSH1 0x40 DUP3 ADD SWAP1 POP SWAP2 SWAP1 POP JUMP JUMPDEST PUSH1 0x0 PUSH1 0x20 DUP3 ADD SWAP1 POP DUP2 DUP2 SUB PUSH1 0x0 DUP4 ADD MSTORE PUSH3 0xB8F DUP2 PUSH3 0xB4D JUMP JUMPDEST SWAP1 POP SWAP2 SWAP1 POP JUMP JUMPDEST PUSH1 0x0 PUSH3 0xBA3 DUP3 PUSH3 0x68C JUMP JUMPDEST SWAP2 POP PUSH3 0xBB0 DUP4 PUSH3 0x68C JUMP JUMPDEST SWAP3 POP DUP3 DUP3 ADD SWAP1 POP DUP1 DUP3 GT ISZERO PUSH3 0xBCB JUMPI PUSH3 0xBCA PUSH3 0x952 JUMP JUMPDEST JUMPDEST SWAP3 SWAP2 POP POP JUMP JUMPDEST PUSH2 0x15B7 DUP1 PUSH3 0xBE1 PUSH1 0x0 CODECOPY PUSH1 0x0 RETURN INVALID PUSH1 0x80 PUSH1 0x40 MSTORE CALLVALUE DUP1 ISZERO PUSH2 0x10 JUMPI PUSH1 0x0 DUP1 REVERT JUMPDEST POP PUSH1 0x4 CALLDATASIZE LT PUSH2 0x88 JUMPI PUSH1 0x0 CALLDATALOAD PUSH1 0xE0 SHR DUP1 PUSH4 0x8DA5CB5B GT PUSH2 0x5B JUMPI DUP1 PUSH4 0x8DA5CB5B EQ PUSH2 0x101 JUMPI DUP1 PUSH4 0xCE7C2AC2 EQ PUSH2 0x11F JUMPI DUP1 PUSH4 0xDA94D7F6 EQ PUSH2 0x14F JUMPI DUP1 PUSH4 0xF2FDE38B EQ PUSH2 0x16B JUMPI PUSH2 0x88 JUMP JUMPDEST DUP1 PUSH4 0x19165587 EQ PUSH2 0x8D JUMPI DUP1 PUSH4 0x3A98EF39 EQ PUSH2 0xA9 JUMPI DUP1 PUSH4 0x715018A6 EQ PUSH2 0xC7 JUMPI DUP1 PUSH4 0x8B83209B EQ PUSH2 0xD1 JUMPI JUMPDEST PUSH1 0x0 DUP1 REVERT JUMPDEST PUSH2 0xA7 PUSH1 0x4 DUP1 CALLDATASIZE SUB DUP2 ADD SWAP1 PUSH2 0xA2 SWAP2 SWAP1 PUSH2 0xC3F JUMP JUMPDEST PUSH2 0x187 JUMP JUMPDEST STOP JUMPDEST PUSH2 0xB1 PUSH2 0x493 JUMP JUMPDEST PUSH1 0x40 MLOAD PUSH2 0xBE SWAP2 SWAP1 PUSH2 0xC85 JUMP JUMPDEST PUSH1 0x40 MLOAD DUP1 SWAP2 SUB SWAP1 RETURN JUMPDEST PUSH2 0xCF PUSH2 0x49D JUMP JUMPDEST STOP JUMPDEST PUSH2 0xEB PUSH1 0x4 DUP1 CALLDATASIZE SUB DUP2 ADD SWAP1 PUSH2 0xE6 SWAP2 SWAP1 PUSH2 0xCCC JUMP JUMPDEST PUSH2 0x4B1 JUMP JUMPDEST PUSH1 0x40 MLOAD PUSH2 0xF8 SWAP2 SWAP1 PUSH2 0xD08 JUMP JUMPDEST PUSH1 0x40 MLOAD DUP1 SWAP2 SUB SWAP1 RETURN JUMPDEST PUSH2 0x109 PUSH2 0x4F9 JUMP JUMPDEST PUSH1 0x40 MLOAD PUSH2 0x116 SWAP2 SWAP1 PUSH2 0xD08 JUMP JUMPDEST PUSH1 0x40 MLOAD DUP1 SWAP2 SUB SWAP1 RETURN JUMPDEST PUSH2 0x139 PUSH1 0x4 DUP1 CALLDATASIZE SUB DUP2 ADD SWAP1 PUSH2 0x134 SWAP2 SWAP1 PUSH2 0xC3F JUMP JUMPDEST PUSH2 0x522 JUMP JUMPDEST PUSH1 0x40 MLOAD PUSH2 0x146 SWAP2 SWAP1 PUSH2 0xC85 JUMP JUMPDEST PUSH1 0x40 MLOAD DUP1 SWAP2 SUB SWAP1 RETURN JUMPDEST PUSH2 0x169 PUSH1 0x4 DUP1 CALLDATASIZE SUB DUP2 ADD SWAP1 PUSH2 0x164 SWAP2 SWAP1 PUSH2 0xD23 JUMP JUMPDEST PUSH2 0x56B JUMP JUMPDEST STOP JUMPDEST PUSH2 0x185 PUSH1 0x4 DUP1 CALLDATASIZE SUB DUP2 ADD SWAP1 PUSH2 0x180 SWAP2 SWAP1 PUSH2 0xC3F JUMP JUMPDEST PUSH2 0x6F4 JUMP JUMPDEST STOP JUMPDEST PUSH1 0x0 PUSH1 0x5 PUSH1 0x0 DUP4 PUSH20 0xFFFFFFFFFFFFFFFFFFFFFFFFFFFFFFFFFFFFFFFF AND PUSH20 0xFFFFFFFFFFFFFFFFFFFFFFFFFFFFFFFFFFFFFFFF AND DUP2 MSTORE PUSH1 0x20 ADD SWAP1 DUP2 MSTORE PUSH1 0x20 ADD PUSH1 0x0 KECCAK256 SLOAD GT PUSH2 0x209 JUMPI PUSH1 0x40 MLOAD PUSH32 0x8C379A000000000000000000000000000000000000000000000000000000000 DUP2 MSTORE PUSH1 0x4 ADD PUSH2 0x200 SWAP1 PUSH2 0xDE6 JUMP JUMPDEST PUSH1 0x40 MLOAD DUP1 SWAP2 SUB SWAP1 REVERT JUMPDEST PUSH1 0x0 PUSH1 0x3 SLOAD PUSH1 0x1 PUSH1 0x0 SWAP1 SLOAD SWAP1 PUSH2 0x100 EXP SWAP1 DIV PUSH20 0xFFFFFFFFFFFFFFFFFFFFFFFFFFFFFFFFFFFFFFFF AND PUSH20 0xFFFFFFFFFFFFFFFFFFFFFFFFFFFFFFFFFFFFFFFF AND PUSH4 0x70A08231 ADDRESS PUSH1 0x40 MLOAD DUP3 PUSH4 0xFFFFFFFF AND PUSH1 0xE0 SHL DUP2 MSTORE PUSH1 0x4 ADD PUSH2 0x269 SWAP2 SWAP1 PUSH2 0xD08 JUMP JUMPDEST PUSH1 0x20 PUSH1 0x40 MLOAD DUP1 DUP4 SUB DUP2 DUP7 GAS STATICCALL ISZERO DUP1 ISZERO PUSH2 0x286 JUMPI RETURNDATASIZE PUSH1 0x0 DUP1 RETURNDATACOPY RETURNDATASIZE PUSH1 0x0 REVERT JUMPDEST POP POP POP POP PUSH1 0x40 MLOAD RETURNDATASIZE PUSH1 0x1F NOT PUSH1 0x1F DUP3 ADD AND DUP3 ADD DUP1 PUSH1 0x40 MSTORE POP DUP2 ADD SWAP1 PUSH2 0x2AA SWAP2 SWAP1 PUSH2 0xE1B JUMP JUMPDEST PUSH2 0x2B4 SWAP2 SWAP1 PUSH2 0xE77 JUMP JUMPDEST SWAP1 POP PUSH1 0x0 PUSH1 0x6 PUSH1 0x0 DUP5 PUSH20 0xFFFFFFFFFFFFFFFFFFFFFFFFFFFFFFFFFFFFFFFF AND PUSH20 0xFFFFFFFFFFFFFFFFFFFFFFFFFFFFFFFFFFFFFFFF AND DUP2 MSTORE PUSH1 0x20 ADD SWAP1 DUP2 MSTORE PUSH1 0x20 ADD PUSH1 0x0 KECCAK256 SLOAD PUSH1 0x2 SLOAD PUSH1 0x5 PUSH1 0x0 DUP7 PUSH20 0xFFFFFFFFFFFFFFFFFFFFFFFFFFFFFFFFFFFFFFFF AND PUSH20 0xFFFFFFFFFFFFFFFFFFFFFFFFFFFFFFFFFFFFFFFF AND DUP2 MSTORE PUSH1 0x20 ADD SWAP1 DUP2 MSTORE PUSH1 0x20 ADD PUSH1 0x0 KECCAK256 SLOAD DUP5 PUSH2 0x346 SWAP2 SWAP1 PUSH2 0xEAB JUMP JUMPDEST PUSH2 0x350 SWAP2 SWAP1 PUSH2 0xF1C JUMP JUMPDEST PUSH2 0x35A SWAP2 SWAP1 PUSH2 0xF4D JUMP JUMPDEST SWAP1 POP PUSH1 0x0 DUP2 SUB PUSH2 0x39F JUMPI PUSH1 0x40 MLOAD PUSH32 0x8C379A000000000000000000000000000000000000000000000000000000000 DUP2 MSTORE PUSH1 0x4 ADD PUSH2 0x396 SWAP1 PUSH2 0xFF3 JUMP JUMPDEST PUSH1 0x40 MLOAD DUP1 SWAP2 SUB SWAP1 REVERT JUMPDEST DUP1 PUSH1 0x6 PUSH1 0x0 DUP6 PUSH20 0xFFFFFFFFFFFFFFFFFFFFFFFFFFFFFFFFFFFFFFFF AND PUSH20 0xFFFFFFFFFFFFFFFFFFFFFFFFFFFFFFFFFFFFFFFF AND DUP2 MSTORE PUSH1 0x20 ADD SWAP1 DUP2 MSTORE PUSH1 0x20 ADD PUSH1 0x0 KECCAK256 SLOAD PUSH2 0x3EA SWAP2 SWAP1 PUSH2 0xE77 JUMP JUMPDEST PUSH1 0x6 PUSH1 0x0 DUP6 PUSH20 0xFFFFFFFFFFFFFFFFFFFFFFFFFFFFFFFFFFFFFFFF AND PUSH20 0xFFFFFFFFFFFFFFFFFFFFFFFFFFFFFFFFFFFFFFFF AND DUP2 MSTORE PUSH1 0x20 ADD SWAP1 DUP2 MSTORE PUSH1 0x20 ADD PUSH1 0x0 KECCAK256 DUP2 SWAP1 SSTORE POP DUP1 PUSH1 0x3 SLOAD PUSH2 0x43B SWAP2 SWAP1 PUSH2 0xE77 JUMP JUMPDEST PUSH1 0x3 DUP2 SWAP1 SSTORE POP PUSH2 0x48E DUP4 DUP3 PUSH1 0x1 PUSH1 0x0 SWAP1 SLOAD SWAP1 PUSH2 0x100 EXP SWAP1 DIV PUSH20 0xFFFFFFFFFFFFFFFFFFFFFFFFFFFFFFFFFFFFFFFF AND PUSH20 0xFFFFFFFFFFFFFFFFFFFFFFFFFFFFFFFFFFFFFFFF AND PUSH2 0x777 SWAP1 SWAP3 SWAP2 SWAP1 PUSH4 0xFFFFFFFF AND JUMP JUMPDEST POP POP POP JUMP JUMPDEST PUSH1 0x0 PUSH1 0x2 SLOAD SWAP1 POP SWAP1 JUMP JUMPDEST PUSH2 0x4A5 PUSH2 0x7FD JUMP JUMPDEST PUSH2 0x4AF PUSH1 0x0 PUSH2 0x87B JUMP JUMPDEST JUMP JUMPDEST PUSH1 0x0 PUSH1 0x4 DUP3 DUP2 SLOAD DUP2 LT PUSH2 0x4C7 JUMPI PUSH2 0x4C6 PUSH2 0x1013 JUMP JUMPDEST JUMPDEST SWAP1 PUSH1 0x0 MSTORE PUSH1 0x20 PUSH1 0x0 KECCAK256 ADD PUSH1 0x0 SWAP1 SLOAD SWAP1 PUSH2 0x100 EXP SWAP1 DIV PUSH20 0xFFFFFFFFFFFFFFFFFFFFFFFFFFFFFFFFFFFFFFFF AND SWAP1 POP SWAP2 SWAP1 POP JUMP JUMPDEST PUSH1 0x0 DUP1 PUSH1 0x0 SWAP1 SLOAD SWAP1 PUSH2 0x100 EXP SWAP1 DIV PUSH20 0xFFFFFFFFFFFFFFFFFFFFFFFFFFFFFFFFFFFFFFFF AND SWAP1 POP SWAP1 JUMP JUMPDEST PUSH1 0x0 PUSH1 0x5 PUSH1 0x0 DUP4 PUSH20 0xFFFFFFFFFFFFFFFFFFFFFFFFFFFFFFFFFFFFFFFF AND PUSH20 0xFFFFFFFFFFFFFFFFFFFFFFFFFFFFFFFFFFFFFFFF AND DUP2 MSTORE PUSH1 0x20 ADD SWAP1 DUP2 MSTORE PUSH1 0x20 ADD PUSH1 0x0 KECCAK256 SLOAD SWAP1 POP SWAP2 SWAP1 POP JUMP JUMPDEST PUSH2 0x573 PUSH2 0x7FD JUMP JUMPDEST PUSH1 0x1 PUSH1 0x0 SWAP1 SLOAD SWAP1 PUSH2 0x100 EXP SWAP1 DIV PUSH20 0xFFFFFFFFFFFFFFFFFFFFFFFFFFFFFFFFFFFFFFFF AND PUSH20 0xFFFFFFFFFFFFFFFFFFFFFFFFFFFFFFFFFFFFFFFF AND DUP2 PUSH20 0xFFFFFFFFFFFFFFFFFFFFFFFFFFFFFFFFFFFFFFFF AND SUB PUSH2 0x603 JUMPI PUSH1 0x40 MLOAD PUSH32 0x8C379A000000000000000000000000000000000000000000000000000000000 DUP2 MSTORE PUSH1 0x4 ADD PUSH2 0x5FA SWAP1 PUSH2 0x10B4 JUMP JUMPDEST PUSH1 0x40 MLOAD DUP1 SWAP2 SUB SWAP1 REVERT JUMPDEST PUSH1 0x0 DUP2 PUSH20 0xFFFFFFFFFFFFFFFFFFFFFFFFFFFFFFFFFFFFFFFF AND PUSH4 0x70A08231 ADDRESS PUSH1 0x40 MLOAD DUP3 PUSH4 0xFFFFFFFF AND PUSH1 0xE0 SHL DUP2 MSTORE PUSH1 0x4 ADD PUSH2 0x63E SWAP2 SWAP1 PUSH2 0xD08 JUMP JUMPDEST PUSH1 0x20 PUSH1 0x40 MLOAD DUP1 DUP4 SUB DUP2 DUP7 GAS STATICCALL ISZERO DUP1 ISZERO PUSH2 0x65B JUMPI RETURNDATASIZE PUSH1 0x0 DUP1 RETURNDATACOPY RETURNDATASIZE PUSH1 0x0 REVERT JUMPDEST POP POP POP POP PUSH1 0x40 MLOAD RETURNDATASIZE PUSH1 0x1F NOT PUSH1 0x1F DUP3 ADD AND DUP3 ADD DUP1 PUSH1 0x40 MSTORE POP DUP2 ADD SWAP1 PUSH2 0x67F SWAP2 SWAP1 PUSH2 0xE1B JUMP JUMPDEST SWAP1 POP PUSH1 0x0 DUP2 GT PUSH2 0x6C4 JUMPI PUSH1 0x40 MLOAD PUSH32 0x8C379A000000000000000000000000000000000000000000000000000000000 DUP2 MSTORE PUSH1 0x4 ADD PUSH2 0x6BB SWAP1 PUSH2 0x1146 JUMP JUMPDEST PUSH1 0x40 MLOAD DUP1 SWAP2 SUB SWAP1 REVERT JUMPDEST PUSH2 0x6EF DUP4 DUP3 DUP5 PUSH20 0xFFFFFFFFFFFFFFFFFFFFFFFFFFFFFFFFFFFFFFFF AND PUSH2 0x777 SWAP1 SWAP3 SWAP2 SWAP1 PUSH4 0xFFFFFFFF AND JUMP JUMPDEST POP POP POP JUMP JUMPDEST PUSH2 0x6FC PUSH2 0x7FD JUMP JUMPDEST PUSH1 0x0 PUSH20 0xFFFFFFFFFFFFFFFFFFFFFFFFFFFFFFFFFFFFFFFF AND DUP2 PUSH20 0xFFFFFFFFFFFFFFFFFFFFFFFFFFFFFFFFFFFFFFFF AND SUB PUSH2 0x76B JUMPI PUSH1 0x40 MLOAD PUSH32 0x8C379A000000000000000000000000000000000000000000000000000000000 DUP2 MSTORE PUSH1 0x4 ADD PUSH2 0x762 SWAP1 PUSH2 0x11D8 JUMP JUMPDEST PUSH1 0x40 MLOAD DUP1 SWAP2 SUB SWAP1 REVERT JUMPDEST PUSH2 0x774 DUP2 PUSH2 0x87B JUMP JUMPDEST POP JUMP JUMPDEST PUSH2 0x7F8 DUP4 PUSH4 0xA9059CBB PUSH1 0xE0 SHL DUP5 DUP5 PUSH1 0x40 MLOAD PUSH1 0x24 ADD PUSH2 0x796 SWAP3 SWAP2 SWAP1 PUSH2 0x11F8 JUMP JUMPDEST PUSH1 0x40 MLOAD PUSH1 0x20 DUP2 DUP4 SUB SUB DUP2 MSTORE SWAP1 PUSH1 0x40 MSTORE SWAP1 PUSH28 0xFFFFFFFFFFFFFFFFFFFFFFFFFFFFFFFFFFFFFFFFFFFFFFFFFFFFFFFF NOT AND PUSH1 0x20 DUP3 ADD DUP1 MLOAD PUSH28 0xFFFFFFFFFFFFFFFFFFFFFFFFFFFFFFFFFFFFFFFFFFFFFFFFFFFFFFFF DUP4 DUP2 DUP4 AND OR DUP4 MSTORE POP POP POP POP PUSH2 0x93F JUMP JUMPDEST POP POP POP JUMP JUMPDEST PUSH2 0x805 PUSH2 0xA07 JUMP JUMPDEST PUSH20 0xFFFFFFFFFFFFFFFFFFFFFFFFFFFFFFFFFFFFFFFF AND PUSH2 0x823 PUSH2 0x4F9 JUMP JUMPDEST PUSH20 0xFFFFFFFFFFFFFFFFFFFFFFFFFFFFFFFFFFFFFFFF AND EQ PUSH2 0x879 JUMPI PUSH1 0x40 MLOAD PUSH32 0x8C379A000000000000000000000000000000000000000000000000000000000 DUP2 MSTORE PUSH1 0x4 ADD PUSH2 0x870 SWAP1 PUSH2 0x126D JUMP JUMPDEST PUSH1 0x40 MLOAD DUP1 SWAP2 SUB SWAP1 REVERT JUMPDEST JUMP JUMPDEST PUSH1 0x0 DUP1 PUSH1 0x0 SWAP1 SLOAD SWAP1 PUSH2 0x100 EXP SWAP1 DIV PUSH20 0xFFFFFFFFFFFFFFFFFFFFFFFFFFFFFFFFFFFFFFFF AND SWAP1 POP DUP2 PUSH1 0x0 DUP1 PUSH2 0x100 EXP DUP2 SLOAD DUP2 PUSH20 0xFFFFFFFFFFFFFFFFFFFFFFFFFFFFFFFFFFFFFFFF MUL NOT AND SWAP1 DUP4 PUSH20 0xFFFFFFFFFFFFFFFFFFFFFFFFFFFFFFFFFFFFFFFF AND MUL OR SWAP1 SSTORE POP DUP2 PUSH20 0xFFFFFFFFFFFFFFFFFFFFFFFFFFFFFFFFFFFFFFFF AND DUP2 PUSH20 0xFFFFFFFFFFFFFFFFFFFFFFFFFFFFFFFFFFFFFFFF AND PUSH32 0x8BE0079C531659141344CD1FD0A4F28419497F9722A3DAAFE3B4186F6B6457E0 PUSH1 0x40 MLOAD PUSH1 0x40 MLOAD DUP1 SWAP2 SUB SWAP1 LOG3 POP POP JUMP JUMPDEST PUSH1 0x0 PUSH2 0x9A1 DUP3 PUSH1 0x40 MLOAD DUP1 PUSH1 0x40 ADD PUSH1 0x40 MSTORE DUP1 PUSH1 0x20 DUP2 MSTORE PUSH1 0x20 ADD PUSH32 0x5361666545524332303A206C6F772D6C6576656C2063616C6C206661696C6564 DUP2 MSTORE POP DUP6 PUSH20 0xFFFFFFFFFFFFFFFFFFFFFFFFFFFFFFFFFFFFFFFF AND PUSH2 0xA0F SWAP1 SWAP3 SWAP2 SWAP1 PUSH4 0xFFFFFFFF AND JUMP JUMPDEST SWAP1 POP PUSH1 0x0 DUP2 MLOAD EQ DUP1 PUSH2 0x9C3 JUMPI POP DUP1 DUP1 PUSH1 0x20 ADD SWAP1 MLOAD DUP2 ADD SWAP1 PUSH2 0x9C2 SWAP2 SWAP1 PUSH2 0x12C5 JUMP JUMPDEST JUMPDEST PUSH2 0xA02 JUMPI PUSH1 0x40 MLOAD PUSH32 0x8C379A000000000000000000000000000000000000000000000000000000000 DUP2 MSTORE PUSH1 0x4 ADD PUSH2 0x9F9 SWAP1 PUSH2 0x1364 JUMP JUMPDEST PUSH1 0x40 MLOAD DUP1 SWAP2 SUB SWAP1 REVERT JUMPDEST POP POP POP JUMP JUMPDEST PUSH1 0x0 CALLER SWAP1 POP SWAP1 JUMP JUMPDEST PUSH1 0x60 PUSH2 0xA1E DUP5 DUP5 PUSH1 0x0 DUP6 PUSH2 0xA27 JUMP JUMPDEST SWAP1 POP SWAP4 SWAP3 POP POP POP JUMP JUMPDEST PUSH1 0x60 DUP3 SELFBALANCE LT ISZERO PUSH2 0xA6C JUMPI PUSH1 0x40 MLOAD PUSH32 0x8C379A000000000000000000000000000000000000000000000000000000000 DUP2 MSTORE PUSH1 0x4 ADD PUSH2 0xA63 SWAP1 PUSH2 0x13F6 JUMP JUMPDEST PUSH1 0x40 MLOAD DUP1 SWAP2 SUB SWAP1 REVERT JUMPDEST PUSH1 0x0 DUP1 DUP7 PUSH20 0xFFFFFFFFFFFFFFFFFFFFFFFFFFFFFFFFFFFFFFFF AND DUP6 DUP8 PUSH1 0x40 MLOAD PUSH2 0xA95 SWAP2 SWAP1 PUSH2 0x1487 JUMP JUMPDEST PUSH1 0x0 PUSH1 0x40 MLOAD DUP1 DUP4 SUB DUP2 DUP6 DUP8 GAS CALL SWAP3 POP POP POP RETURNDATASIZE DUP1 PUSH1 0x0 DUP2 EQ PUSH2 0xAD2 JUMPI PUSH1 0x40 MLOAD SWAP2 POP PUSH1 0x1F NOT PUSH1 0x3F RETURNDATASIZE ADD AND DUP3 ADD PUSH1 0x40 MSTORE RETURNDATASIZE DUP3 MSTORE RETURNDATASIZE PUSH1 0x0 PUSH1 0x20 DUP5 ADD RETURNDATACOPY PUSH2 0xAD7 JUMP JUMPDEST PUSH1 0x60 SWAP2 POP JUMPDEST POP SWAP2 POP SWAP2 POP PUSH2 0xAE8 DUP8 DUP4 DUP4 DUP8 PUSH2 0xAF4 JUMP JUMPDEST SWAP3 POP POP POP SWAP5 SWAP4 POP POP POP POP JUMP JUMPDEST PUSH1 0x60 DUP4 ISZERO PUSH2 0xB56 JUMPI PUSH1 0x0 DUP4 MLOAD SUB PUSH2 0xB4E JUMPI PUSH2 0xB0E DUP6 PUSH2 0xB69 JUMP JUMPDEST PUSH2 0xB4D JUMPI PUSH1 0x40 MLOAD PUSH32 0x8C379A000000000000000000000000000000000000000000000000000000000 DUP2 MSTORE PUSH1 0x4 ADD PUSH2 0xB44 SWAP1 PUSH2 0x14EA JUMP JUMPDEST PUSH1 0x40 MLOAD DUP1 SWAP2 SUB SWAP1 REVERT JUMPDEST JUMPDEST DUP3 SWAP1 POP PUSH2 0xB61 JUMP JUMPDEST PUSH2 0xB60 DUP4 DUP4 PUSH2 0xB8C JUMP JUMPDEST JUMPDEST SWAP5 SWAP4 POP POP POP POP JUMP JUMPDEST PUSH1 0x0 DUP1 DUP3 PUSH20 0xFFFFFFFFFFFFFFFFFFFFFFFFFFFFFFFFFFFFFFFF AND EXTCODESIZE GT SWAP1 POP SWAP2 SWAP1 POP JUMP JUMPDEST PUSH1 0x0 DUP3 MLOAD GT ISZERO PUSH2 0xB9F JUMPI DUP2 MLOAD DUP1 DUP4 PUSH1 0x20 ADD REVERT JUMPDEST DUP1 PUSH1 0x40 MLOAD PUSH32 0x8C379A000000000000000000000000000000000000000000000000000000000 DUP2 MSTORE PUSH1 0x4 ADD PUSH2 0xBD3 SWAP2 SWAP1 PUSH2 0x155F JUMP JUMPDEST PUSH1 0x40 MLOAD DUP1 SWAP2 SUB SWAP1 REVERT JUMPDEST PUSH1 0x0 DUP1 REVERT JUMPDEST PUSH1 0x0 PUSH20 0xFFFFFFFFFFFFFFFFFFFFFFFFFFFFFFFFFFFFFFFF DUP3 AND SWAP1 POP SWAP2 SWAP1 POP JUMP JUMPDEST PUSH1 0x0 PUSH2 0xC0C DUP3 PUSH2 0xBE1 JUMP JUMPDEST SWAP1 POP SWAP2 SWAP1 POP JUMP JUMPDEST PUSH2 0xC1C DUP2 PUSH2 0xC01 JUMP JUMPDEST DUP2 EQ PUSH2 0xC27 JUMPI PUSH1 0x0 DUP1 REVERT JUMPDEST POP JUMP JUMPDEST PUSH1 0x0 DUP2 CALLDATALOAD SWAP1 POP PUSH2 0xC39 DUP2 PUSH2 0xC13 JUMP JUMPDEST SWAP3 SWAP2 POP POP JUMP JUMPDEST PUSH1 0x0 PUSH1 0x20 DUP3 DUP5 SUB SLT ISZERO PUSH2 0xC55 JUMPI PUSH2 0xC54 PUSH2 0xBDC JUMP JUMPDEST JUMPDEST PUSH1 0x0 PUSH2 0xC63 DUP5 DUP3 DUP6 ADD PUSH2 0xC2A JUMP JUMPDEST SWAP2 POP POP SWAP3 SWAP2 POP POP JUMP JUMPDEST PUSH1 0x0 DUP2 SWAP1 POP SWAP2 SWAP1 POP JUMP JUMPDEST PUSH2 0xC7F DUP2 PUSH2 0xC6C JUMP JUMPDEST DUP3 MSTORE POP POP JUMP JUMPDEST PUSH1 0x0 PUSH1 0x20 DUP3 ADD SWAP1 POP PUSH2 0xC9A PUSH1 0x0 DUP4 ADD DUP5 PUSH2 0xC76 JUMP JUMPDEST SWAP3 SWAP2 POP POP JUMP JUMPDEST PUSH2 0xCA9 DUP2 PUSH2 0xC6C JUMP JUMPDEST DUP2 EQ PUSH2 0xCB4 JUMPI PUSH1 0x0 DUP1 REVERT JUMPDEST POP JUMP JUMPDEST PUSH1 0x0 DUP2 CALLDATALOAD SWAP1 POP PUSH2 0xCC6 DUP2 PUSH2 0xCA0 JUMP JUMPDEST SWAP3 SWAP2 POP POP JUMP JUMPDEST PUSH1 0x0 PUSH1 0x20 DUP3 DUP5 SUB SLT ISZERO PUSH2 0xCE2 JUMPI PUSH2 0xCE1 PUSH2 0xBDC JUMP JUMPDEST JUMPDEST PUSH1 0x0 PUSH2 0xCF0 DUP5 DUP3 DUP6 ADD PUSH2 0xCB7 JUMP JUMPDEST SWAP2 POP POP SWAP3 SWAP2 POP POP JUMP JUMPDEST PUSH2 0xD02 DUP2 PUSH2 0xC01 JUMP JUMPDEST DUP3 MSTORE POP POP JUMP JUMPDEST PUSH1 0x0 PUSH1 0x20 DUP3 ADD SWAP1 POP PUSH2 0xD1D PUSH1 0x0 DUP4 ADD DUP5 PUSH2 0xCF9 JUMP JUMPDEST SWAP3 SWAP2 POP POP JUMP JUMPDEST PUSH1 0x0 DUP1 PUSH1 0x40 DUP4 DUP6 SUB SLT ISZERO PUSH2 0xD3A JUMPI PUSH2 0xD39 PUSH2 0xBDC JUMP JUMPDEST JUMPDEST PUSH1 0x0 PUSH2 0xD48 DUP6 DUP3 DUP7 ADD PUSH2 0xC2A JUMP JUMPDEST SWAP3 POP POP PUSH1 0x20 PUSH2 0xD59 DUP6 DUP3 DUP7 ADD PUSH2 0xC2A JUMP JUMPDEST SWAP2 POP POP SWAP3 POP SWAP3 SWAP1 POP JUMP JUMPDEST PUSH1 0x0 DUP3 DUP3 MSTORE PUSH1 0x20 DUP3 ADD SWAP1 POP SWAP3 SWAP2 POP POP JUMP JUMPDEST PUSH32 0x546F6B656E5061796D656E7453706C69747465723A206163636F756E74206861 PUSH1 0x0 DUP3 ADD MSTORE PUSH32 0x73206E6F20736861726573000000000000000000000000000000000000000000 PUSH1 0x20 DUP3 ADD MSTORE POP JUMP JUMPDEST PUSH1 0x0 PUSH2 0xDD0 PUSH1 0x2B DUP4 PUSH2 0xD63 JUMP JUMPDEST SWAP2 POP PUSH2 0xDDB DUP3 PUSH2 0xD74 JUMP JUMPDEST PUSH1 0x40 DUP3 ADD SWAP1 POP SWAP2 SWAP1 POP JUMP JUMPDEST PUSH1 0x0 PUSH1 0x20 DUP3 ADD SWAP1 POP DUP2 DUP2 SUB PUSH1 0x0 DUP4 ADD MSTORE PUSH2 0xDFF DUP2 PUSH2 0xDC3 JUMP JUMPDEST SWAP1 POP SWAP2 SWAP1 POP JUMP JUMPDEST PUSH1 0x0 DUP2 MLOAD SWAP1 POP PUSH2 0xE15 DUP2 PUSH2 0xCA0 JUMP JUMPDEST SWAP3 SWAP2 POP POP JUMP JUMPDEST PUSH1 0x0 PUSH1 0x20 DUP3 DUP5 SUB SLT ISZERO PUSH2 0xE31 JUMPI PUSH2 0xE30 PUSH2 0xBDC JUMP JUMPDEST JUMPDEST PUSH1 0x0 PUSH2 0xE3F DUP5 DUP3 DUP6 ADD PUSH2 0xE06 JUMP JUMPDEST SWAP2 POP POP SWAP3 SWAP2 POP POP JUMP JUMPDEST PUSH32 0x4E487B7100000000000000000000000000000000000000000000000000000000 PUSH1 0x0 MSTORE PUSH1 0x11 PUSH1 0x4 MSTORE PUSH1 0x24 PUSH1 0x0 REVERT JUMPDEST PUSH1 0x0 PUSH2 0xE82 DUP3 PUSH2 0xC6C JUMP JUMPDEST SWAP2 POP PUSH2 0xE8D DUP4 PUSH2 0xC6C JUMP JUMPDEST SWAP3 POP DUP3 DUP3 ADD SWAP1 POP DUP1 DUP3 GT ISZERO PUSH2 0xEA5 JUMPI PUSH2 0xEA4 PUSH2 0xE48 JUMP JUMPDEST JUMPDEST SWAP3 SWAP2 POP POP JUMP JUMPDEST PUSH1 0x0 PUSH2 0xEB6 DUP3 PUSH2 0xC6C JUMP JUMPDEST SWAP2 POP PUSH2 0xEC1 DUP4 PUSH2 0xC6C JUMP JUMPDEST SWAP3 POP DUP3 DUP3 MUL PUSH2 0xECF DUP2 PUSH2 0xC6C JUMP JUMPDEST SWAP2 POP DUP3 DUP3 DIV DUP5 EQ DUP4 ISZERO OR PUSH2 0xEE6 JUMPI PUSH2 0xEE5 PUSH2 0xE48 JUMP JUMPDEST JUMPDEST POP SWAP3 SWAP2 POP POP JUMP JUMPDEST PUSH32 0x4E487B7100000000000000000000000000000000000000000000000000000000 PUSH1 0x0 MSTORE PUSH1 0x12 PUSH1 0x4 MSTORE PUSH1 0x24 PUSH1 0x0 REVERT JUMPDEST PUSH1 0x0 PUSH2 0xF27 DUP3 PUSH2 0xC6C JUMP JUMPDEST SWAP2 POP PUSH2 0xF32 DUP4 PUSH2 0xC6C JUMP JUMPDEST SWAP3 POP DUP3 PUSH2 0xF42 JUMPI PUSH2 0xF41 PUSH2 0xEED JUMP JUMPDEST JUMPDEST DUP3 DUP3 DIV SWAP1 POP SWAP3 SWAP2 POP POP JUMP JUMPDEST PUSH1 0x0 PUSH2 0xF58 DUP3 PUSH2 0xC6C JUMP JUMPDEST SWAP2 POP PUSH2 0xF63 DUP4 PUSH2 0xC6C JUMP JUMPDEST SWAP3 POP DUP3 DUP3 SUB SWAP1 POP DUP2 DUP2 GT ISZERO PUSH2 0xF7B JUMPI PUSH2 0xF7A PUSH2 0xE48 JUMP JUMPDEST JUMPDEST SWAP3 SWAP2 POP POP JUMP JUMPDEST PUSH32 0x546F6B656E5061796D656E7453706C69747465723A206163636F756E74206973 PUSH1 0x0 DUP3 ADD MSTORE PUSH32 0x206E6F7420647565207061796D656E7400000000000000000000000000000000 PUSH1 0x20 DUP3 ADD MSTORE POP JUMP JUMPDEST PUSH1 0x0 PUSH2 0xFDD PUSH1 0x30 DUP4 PUSH2 0xD63 JUMP JUMPDEST SWAP2 POP PUSH2 0xFE8 DUP3 PUSH2 0xF81 JUMP JUMPDEST PUSH1 0x40 DUP3 ADD SWAP1 POP SWAP2 SWAP1 POP JUMP JUMPDEST PUSH1 0x0 PUSH1 0x20 DUP3 ADD SWAP1 POP DUP2 DUP2 SUB PUSH1 0x0 DUP4 ADD MSTORE PUSH2 0x100C DUP2 PUSH2 0xFD0 JUMP JUMPDEST SWAP1 POP SWAP2 SWAP1 POP JUMP JUMPDEST PUSH32 0x4E487B7100000000000000000000000000000000000000000000000000000000 PUSH1 0x0 MSTORE PUSH1 0x32 PUSH1 0x4 MSTORE PUSH1 0x24 PUSH1 0x0 REVERT JUMPDEST PUSH32 0x4D6F636B506F6F6C3A20546F6B656E20746F20647261696E206973205061796D PUSH1 0x0 DUP3 ADD MSTORE PUSH32 0x656E74546F6B656E000000000000000000000000000000000000000000000000 PUSH1 0x20 DUP3 ADD MSTORE POP JUMP JUMPDEST PUSH1 0x0 PUSH2 0x109E PUSH1 0x28 DUP4 PUSH2 0xD63 JUMP JUMPDEST SWAP2 POP PUSH2 0x10A9 DUP3 PUSH2 0x1042 JUMP JUMPDEST PUSH1 0x40 DUP3 ADD SWAP1 POP SWAP2 SWAP1 POP JUMP JUMPDEST PUSH1 0x0 PUSH1 0x20 DUP3 ADD SWAP1 POP DUP2 DUP2 SUB PUSH1 0x0 DUP4 ADD MSTORE PUSH2 0x10CD DUP2 PUSH2 0x1091 JUMP JUMPDEST SWAP1 POP SWAP2 SWAP1 POP JUMP JUMPDEST PUSH32 0x4D6F636B506F6F6C3A20546F6B656E20746F20647261696E2062616C616E6365 PUSH1 0x0 DUP3 ADD MSTORE PUSH32 0x2069732030000000000000000000000000000000000000000000000000000000 PUSH1 0x20 DUP3 ADD MSTORE POP JUMP JUMPDEST PUSH1 0x0 PUSH2 0x1130 PUSH1 0x25 DUP4 PUSH2 0xD63 JUMP JUMPDEST SWAP2 POP PUSH2 0x113B DUP3 PUSH2 0x10D4 JUMP JUMPDEST PUSH1 0x40 DUP3 ADD SWAP1 POP SWAP2 SWAP1 POP JUMP JUMPDEST PUSH1 0x0 PUSH1 0x20 DUP3 ADD SWAP1 POP DUP2 DUP2 SUB PUSH1 0x0 DUP4 ADD MSTORE PUSH2 0x115F DUP2 PUSH2 0x1123 JUMP JUMPDEST SWAP1 POP SWAP2 SWAP1 POP JUMP JUMPDEST PUSH32 0x4F776E61626C653A206E6577206F776E657220697320746865207A65726F2061 PUSH1 0x0 DUP3 ADD MSTORE PUSH32 0x6464726573730000000000000000000000000000000000000000000000000000 PUSH1 0x20 DUP3 ADD MSTORE POP JUMP JUMPDEST PUSH1 0x0 PUSH2 0x11C2 PUSH1 0x26 DUP4 PUSH2 0xD63 JUMP JUMPDEST SWAP2 POP PUSH2 0x11CD DUP3 PUSH2 0x1166 JUMP JUMPDEST PUSH1 0x40 DUP3 ADD SWAP1 POP SWAP2 SWAP1 POP JUMP JUMPDEST PUSH1 0x0 PUSH1 0x20 DUP3 ADD SWAP1 POP DUP2 DUP2 SUB PUSH1 0x0 DUP4 ADD MSTORE PUSH2 0x11F1 DUP2 PUSH2 0x11B5 JUMP JUMPDEST SWAP1 POP SWAP2 SWAP1 POP JUMP JUMPDEST PUSH1 0x0 PUSH1 0x40 DUP3 ADD SWAP1 POP PUSH2 0x120D PUSH1 0x0 DUP4 ADD DUP6 PUSH2 0xCF9 JUMP JUMPDEST PUSH2 0x121A PUSH1 0x20 DUP4 ADD DUP5 PUSH2 0xC76 JUMP JUMPDEST SWAP4 SWAP3 POP POP POP JUMP JUMPDEST PUSH32 0x4F776E61626C653A2063616C6C6572206973206E6F7420746865206F776E6572 PUSH1 0x0 DUP3 ADD MSTORE POP JUMP JUMPDEST PUSH1 0x0 PUSH2 0x1257 PUSH1 0x20 DUP4 PUSH2 0xD63 JUMP JUMPDEST SWAP2 POP PUSH2 0x1262 DUP3 PUSH2 0x1221 JUMP JUMPDEST PUSH1 0x20 DUP3 ADD SWAP1 POP SWAP2 SWAP1 POP JUMP JUMPDEST PUSH1 0x0 PUSH1 0x20 DUP3 ADD SWAP1 POP DUP2 DUP2 SUB PUSH1 0x0 DUP4 ADD MSTORE PUSH2 0x1286 DUP2 PUSH2 0x124A JUMP JUMPDEST SWAP1 POP SWAP2 SWAP1 POP JUMP JUMPDEST PUSH1 0x0 DUP2 ISZERO ISZERO SWAP1 POP SWAP2 SWAP1 POP JUMP JUMPDEST PUSH2 0x12A2 DUP2 PUSH2 0x128D JUMP JUMPDEST DUP2 EQ PUSH2 0x12AD JUMPI PUSH1 0x0 DUP1 REVERT JUMPDEST POP JUMP JUMPDEST PUSH1 0x0 DUP2 MLOAD SWAP1 POP PUSH2 0x12BF DUP2 PUSH2 0x1299 JUMP JUMPDEST SWAP3 SWAP2 POP POP JUMP JUMPDEST PUSH1 0x0 PUSH1 0x20 DUP3 DUP5 SUB SLT ISZERO PUSH2 0x12DB JUMPI PUSH2 0x12DA PUSH2 0xBDC JUMP JUMPDEST JUMPDEST PUSH1 0x0 PUSH2 0x12E9 DUP5 DUP3 DUP6 ADD PUSH2 0x12B0 JUMP JUMPDEST SWAP2 POP POP SWAP3 SWAP2 POP POP JUMP JUMPDEST PUSH32 0x5361666545524332303A204552433230206F7065726174696F6E20646964206E PUSH1 0x0 DUP3 ADD MSTORE PUSH32 0x6F74207375636365656400000000000000000000000000000000000000000000 PUSH1 0x20 DUP3 ADD MSTORE POP JUMP JUMPDEST PUSH1 0x0 PUSH2 0x134E PUSH1 0x2A DUP4 PUSH2 0xD63 JUMP JUMPDEST SWAP2 POP PUSH2 0x1359 DUP3 PUSH2 0x12F2 JUMP JUMPDEST PUSH1 0x40 DUP3 ADD SWAP1 POP SWAP2 SWAP1 POP JUMP JUMPDEST PUSH1 0x0 PUSH1 0x20 DUP3 ADD SWAP1 POP DUP2 DUP2 SUB PUSH1 0x0 DUP4 ADD MSTORE PUSH2 0x137D DUP2 PUSH2 0x1341 JUMP JUMPDEST SWAP1 POP SWAP2 SWAP1 POP JUMP JUMPDEST PUSH32 0x416464726573733A20696E73756666696369656E742062616C616E636520666F PUSH1 0x0 DUP3 ADD MSTORE PUSH32 0x722063616C6C0000000000000000000000000000000000000000000000000000 PUSH1 0x20 DUP3 ADD MSTORE POP JUMP JUMPDEST PUSH1 0x0 PUSH2 0x13E0 PUSH1 0x26 DUP4 PUSH2 0xD63 JUMP JUMPDEST SWAP2 POP PUSH2 0x13EB DUP3 PUSH2 0x1384 JUMP JUMPDEST PUSH1 0x40 DUP3 ADD SWAP1 POP SWAP2 SWAP1 POP JUMP JUMPDEST PUSH1 0x0 PUSH1 0x20 DUP3 ADD SWAP1 POP DUP2 DUP2 SUB PUSH1 0x0 DUP4 ADD MSTORE PUSH2 0x140F DUP2 PUSH2 0x13D3 JUMP JUMPDEST SWAP1 POP SWAP2 SWAP1 POP JUMP JUMPDEST PUSH1 0x0 DUP2 MLOAD SWAP1 POP SWAP2 SWAP1 POP JUMP JUMPDEST PUSH1 0x0 DUP2 SWAP1 POP SWAP3 SWAP2 POP POP JUMP JUMPDEST PUSH1 0x0 JUMPDEST DUP4 DUP2 LT ISZERO PUSH2 0x144A JUMPI DUP1 DUP3 ADD MLOAD DUP2 DUP5 ADD MSTORE PUSH1 0x20 DUP2 ADD SWAP1 POP PUSH2 0x142F JUMP JUMPDEST PUSH1 0x0 DUP5 DUP5 ADD MSTORE POP POP POP POP JUMP JUMPDEST PUSH1 0x0 PUSH2 0x1461 DUP3 PUSH2 0x1416 JUMP JUMPDEST PUSH2 0x146B DUP2 DUP6 PUSH2 0x1421 JUMP JUMPDEST SWAP4 POP PUSH2 0x147B DUP2 DUP6 PUSH1 0x20 DUP7 ADD PUSH2 0x142C JUMP JUMPDEST DUP1 DUP5 ADD SWAP2 POP POP SWAP3 SWAP2 POP POP JUMP JUMPDEST PUSH1 0x0 PUSH2 0x1493 DUP3 DUP5 PUSH2 0x1456 JUMP JUMPDEST SWAP2 POP DUP2 SWAP1 POP SWAP3 SWAP2 POP POP JUMP JUMPDEST PUSH32 0x416464726573733A2063616C6C20746F206E6F6E2D636F6E7472616374000000 PUSH1 0x0 DUP3 ADD MSTORE POP JUMP JUMPDEST PUSH1 0x0 PUSH2 0x14D4 PUSH1 0x1D DUP4 PUSH2 0xD63 JUMP JUMPDEST SWAP2 POP PUSH2 0x14DF DUP3 PUSH2 0x149E JUMP JUMPDEST PUSH1 0x20 DUP3 ADD SWAP1 POP SWAP2 SWAP1 POP JUMP JUMPDEST PUSH1 0x0 PUSH1 0x20 DUP3 ADD SWAP1 POP DUP2 DUP2 SUB PUSH1 0x0 DUP4 ADD MSTORE PUSH2 0x1503 DUP2 PUSH2 0x14C7 JUMP JUMPDEST SWAP1 POP SWAP2 SWAP1 POP JUMP JUMPDEST PUSH1 0x0 DUP2 MLOAD SWAP1 POP SWAP2 SWAP1 POP JUMP JUMPDEST PUSH1 0x0 PUSH1 0x1F NOT PUSH1 0x1F DUP4 ADD AND SWAP1 POP SWAP2 SWAP1 POP JUMP JUMPDEST PUSH1 0x0 PUSH2 0x1531 DUP3 PUSH2 0x150A JUMP JUMPDEST PUSH2 0x153B DUP2 DUP6 PUSH2 0xD63 JUMP JUMPDEST SWAP4 POP PUSH2 0x154B DUP2 DUP6 PUSH1 0x20 DUP7 ADD PUSH2 0x142C JUMP JUMPDEST PUSH2 0x1554 DUP2 PUSH2 0x1515 JUMP JUMPDEST DUP5 ADD SWAP2 POP POP SWAP3 SWAP2 POP POP JUMP JUMPDEST PUSH1 0x0 PUSH1 0x20 DUP3 ADD SWAP1 POP DUP2 DUP2 SUB PUSH1 0x0 DUP4 ADD MSTORE PUSH2 0x1579 DUP2 DUP5 PUSH2 0x1526 JUMP JUMPDEST SWAP1 POP SWAP3 SWAP2 POP POP JUMP INVALID LOG2 PUSH5 0x6970667358 0x22 SLT KECCAK256 0xE1 0x1E STATICCALL EQ CREATE2 PUSH7 0xDEA1C95B526824 DUP14 CALLDATALOAD 0xED 0x2E 0xE4 0xEC 0x2F CALLER PUSH32 0x824910A63637E512AF7464736F6C634300081300330000000000000000000000 "},"methodIdentifiers":{"drainTo(address,address)":"da94d7f6","owner()":"8da5cb5b","payee(uint256)":"8b83209b","release(address)":"19165587","renounceOwnership()":"715018a6","shares(address)":"ce7c2ac2","totalShares()":"3a98ef39","transferOwnership(address)":"f2fde38b"}}}}}