{
  "_format": "hh-sol-artifact-1",
  "contractName": "MockPool",
  "sourceName": "contracts/MockPool.sol",
  "abi": [
    {
      "inputs": [
        {
          "internalType": "address[]",
          "name": "_payees",
          "type": "address[]"
        },
        {
          "internalType": "uint256[]",
          "name": "_shares",
          "type": "uint256[]"
        },
        {
          "internalType": "address",
          "name": "_paymentToken",
          "type": "address"
        }
      ],
      "stateMutability": "nonpayable",
      "type": "constructor"
    },
    {
      "anonymous": false,
      "inputs": [
        {
          "indexed": true,
          "internalType": "address",
          "name": "previousOwner",
          "type": "address"
        },
        {
          "indexed": true,
          "internalType": "address",
          "name": "newOwner",
          "type": "address"
        }
      ],
      "name": "OwnershipTransferred",
      "type": "event"
    },
    {
      "anonymous": false,
      "inputs": [
        {
          "indexed": false,
          "internalType": "address",
          "name": "account",
          "type": "address"
        },
        {
          "indexed": false,
          "internalType": "uint256",
          "name": "shares",
          "type": "uint256"
        }
      ],
      "name": "PayeeAdded",
      "type": "event"
    },
    {
      "anonymous": false,
      "inputs": [
        {
          "indexed": false,
          "internalType": "address",
          "name": "to",
          "type": "address"
        },
        {
          "indexed": false,
          "internalType": "uint256",
          "name": "amount",
          "type": "uint256"
        }
      ],
      "name": "PaymentReleased",
      "type": "event"
    },
    {
      "inputs": [
        {
          "internalType": "address",
          "name": "_transferTo",
          "type": "address"
        },
        {
          "internalType": "address",
          "name": "_token",
          "type": "address"
        }
      ],
      "name": "drainTo",
      "outputs": [],
      "stateMutability": "nonpayable",
      "type": "function"
    },
    {
      "inputs": [],
      "name": "owner",
      "outputs": [
        {
          "internalType": "address",
          "name": "",
          "type": "address"
        }
      ],
      "stateMutability": "view",
      "type": "function"
    },
    {
      "inputs": [
        {
          "internalType": "uint256",
          "name": "index",
          "type": "uint256"
        }
      ],
      "name": "payee",
      "outputs": [
        {
          "internalType": "address",
          "name": "",
          "type": "address"
        }
      ],
      "stateMutability": "view",
      "type": "function"
    },
    {
      "inputs": [
        {
          "internalType": "address",
          "name": "account",
          "type": "address"
        }
      ],
      "name": "release",
      "outputs": [],
      "stateMutability": "nonpayable",
      "type": "function"
    },
    {
      "inputs": [],
      "name": "renounceOwnership",
      "outputs": [],
      "stateMutability": "nonpayable",
      "type": "function"
    },
    {
      "inputs": [
        {
          "internalType": "address",
          "name": "account",
          "type": "address"
        }
      ],
      "name": "shares",
      "outputs": [
        {
          "internalType": "uint256",
          "name": "",
          "type": "uint256"
        }
      ],
      "stateMutability": "view",
      "type": "function"
    },
    {
      "inputs": [],
      "name": "totalShares",
      "outputs": [
        {
          "internalType": "uint256",
          "name": "",
          "type": "uint256"
        }
      ],
      "stateMutability": "view",
      "type": "function"
    },
    {
      "inputs": [
        {
          "internalType": "address",
          "name": "newOwner",
          "type": "address"
        }
      ],
      "name": "transferOwnership",
      "outputs": [],
      "stateMutability": "nonpayable",
      "type": "function"
    }
  ],
  "bytecode": "0x60806040523480156200001157600080fd5b506040516200225b3803806200225b8339818101604052810190620000379190620007a9565b8282826200005a6200004e620001a560201b60201c565b620001ad60201b60201c565b8151835114620000a1576040517f08c379a00000000000000000000000000000000000000000000000000000000081526004016200009890620008ca565b60405180910390fd5b6000835111620000e8576040517f08c379a0000000000000000000000000000000000000000000000000000000008152600401620000df906200093c565b60405180910390fd5b60005b83518110156200015757620001418482815181106200010f576200010e6200095e565b5b60200260200101518483815181106200012d576200012c6200095e565b5b60200260200101516200027160201b60201c565b80806200014e90620009bc565b915050620000eb565b5080600160006101000a81548173ffffffffffffffffffffffffffffffffffffffff021916908373ffffffffffffffffffffffffffffffffffffffff16021790555050505050505062000c5b565b600033905090565b60008060009054906101000a900473ffffffffffffffffffffffffffffffffffffffff169050816000806101000a81548173ffffffffffffffffffffffffffffffffffffffff021916908373ffffffffffffffffffffffffffffffffffffffff1602179055508173ffffffffffffffffffffffffffffffffffffffff168173ffffffffffffffffffffffffffffffffffffffff167f8be0079c531659141344cd1fd0a4f28419497f9722a3daafe3b4186f6b6457e060405160405180910390a35050565b600073ffffffffffffffffffffffffffffffffffffffff168273ffffffffffffffffffffffffffffffffffffffff1603620002e3576040517f08c379a0000000000000000000000000000000000000000000000000000000008152600401620002da9062000a7f565b60405180910390fd5b6000811162000329576040517f08c379a0000000000000000000000000000000000000000000000000000000008152600401620003209062000b17565b60405180910390fd5b6000600560008473ffffffffffffffffffffffffffffffffffffffff1673ffffffffffffffffffffffffffffffffffffffff1681526020019081526020016000205414620003ae576040517f08c379a0000000000000000000000000000000000000000000000000000000008152600401620003a59062000baf565b60405180910390fd5b6004829080600181540180825580915050600190039060005260206000200160009091909190916101000a81548173ffffffffffffffffffffffffffffffffffffffff021916908373ffffffffffffffffffffffffffffffffffffffff16021790555080600560008473ffffffffffffffffffffffffffffffffffffffff1673ffffffffffffffffffffffffffffffffffffffff168152602001908152602001600020819055508060025462000465919062000bd1565b6002819055507f40c340f65e17194d14ddddb073d3c9f888e3cb52b5aae0c6c7706b4fbc905fac82826040516200049e92919062000c2e565b60405180910390a15050565b6000604051905090565b600080fd5b600080fd5b600080fd5b6000601f19601f8301169050919050565b7f4e487b7100000000000000000000000000000000000000000000000000000000600052604160045260246000fd5b6200050e82620004c3565b810181811067ffffffffffffffff8211171562000530576200052f620004d4565b5b80604052505050565b600062000545620004aa565b905062000553828262000503565b919050565b600067ffffffffffffffff821115620005765762000575620004d4565b5b602082029050602081019050919050565b600080fd5b600073ffffffffffffffffffffffffffffffffffffffff82169050919050565b6000620005b9826200058c565b9050919050565b620005cb81620005ac565b8114620005d757600080fd5b50565b600081519050620005eb81620005c0565b92915050565b600062000608620006028462000558565b62000539565b905080838252602082019050602084028301858111156200062e576200062d62000587565b5b835b818110156200065b5780620006468882620005da565b84526020840193505060208101905062000630565b5050509392505050565b600082601f8301126200067d576200067c620004be565b5b81516200068f848260208601620005f1565b91505092915050565b600067ffffffffffffffff821115620006b657620006b5620004d4565b5b602082029050602081019050919050565b6000819050919050565b620006dc81620006c7565b8114620006e857600080fd5b50565b600081519050620006fc81620006d1565b92915050565b600062000719620007138462000698565b62000539565b905080838252602082019050602084028301858111156200073f576200073e62000587565b5b835b818110156200076c5780620007578882620006eb565b84526020840193505060208101905062000741565b5050509392505050565b600082601f8301126200078e576200078d620004be565b5b8151620007a084826020860162000702565b91505092915050565b600080600060608486031215620007c557620007c4620004b4565b5b600084015167ffffffffffffffff811115620007e657620007e5620004b9565b5b620007f48682870162000665565b935050602084015167ffffffffffffffff811115620008185762000817620004b9565b5b620008268682870162000776565b92505060406200083986828701620005da565b9150509250925092565b600082825260208201905092915050565b7f546f6b656e5061796d656e7453706c69747465723a2070617965657320616e6460008201527f20736861726573206c656e677468206d69736d61746368000000000000000000602082015250565b6000620008b260378362000843565b9150620008bf8262000854565b604082019050919050565b60006020820190508181036000830152620008e581620008a3565b9050919050565b7f546f6b656e5061796d656e7453706c69747465723a206e6f2070617965657300600082015250565b600062000924601f8362000843565b91506200093182620008ec565b602082019050919050565b60006020820190508181036000830152620009578162000915565b9050919050565b7f4e487b7100000000000000000000000000000000000000000000000000000000600052603260045260246000fd5b7f4e487b7100000000000000000000000000000000000000000000000000000000600052601160045260246000fd5b6000620009c982620006c7565b91507fffffffffffffffffffffffffffffffffffffffffffffffffffffffffffffffff8203620009fe57620009fd6200098d565b5b600182019050919050565b7f546f6b656e5061796d656e7453706c69747465723a206163636f756e7420697360008201527f20746865207a65726f2061646472657373000000000000000000000000000000602082015250565b600062000a6760318362000843565b915062000a748262000a09565b604082019050919050565b6000602082019050818103600083015262000a9a8162000a58565b9050919050565b7f546f6b656e5061796d656e7453706c69747465723a207368617265732061726560008201527f2030000000000000000000000000000000000000000000000000000000000000602082015250565b600062000aff60228362000843565b915062000b0c8262000aa1565b604082019050919050565b6000602082019050818103600083015262000b328162000af0565b9050919050565b7f546f6b656e5061796d656e7453706c69747465723a206163636f756e7420616c60008201527f7265616479206861732073686172657300000000000000000000000000000000602082015250565b600062000b9760308362000843565b915062000ba48262000b39565b604082019050919050565b6000602082019050818103600083015262000bca8162000b88565b9050919050565b600062000bde82620006c7565b915062000beb83620006c7565b925082820190508082111562000c065762000c056200098d565b5b92915050565b62000c1781620005ac565b82525050565b62000c2881620006c7565b82525050565b600060408201905062000c45600083018562000c0c565b62000c54602083018462000c1d565b9392505050565b6115f08062000c6b6000396000f3fe608060405234801561001057600080fd5b50600436106100885760003560e01c80638da5cb5b1161005b5780638da5cb5b14610101578063ce7c2ac21461011f578063da94d7f61461014f578063f2fde38b1461016b57610088565b8063191655871461008d5780633a98ef39146100a9578063715018a6146100c75780638b83209b146100d1575b600080fd5b6100a760048036038101906100a29190610c78565b610187565b005b6100b16104cc565b6040516100be9190610cbe565b60405180910390f35b6100cf6104d6565b005b6100eb60048036038101906100e69190610d05565b6104ea565b6040516100f89190610d41565b60405180910390f35b610109610532565b6040516101169190610d41565b60405180910390f35b61013960048036038101906101349190610c78565b61055b565b6040516101469190610cbe565b60405180910390f35b61016960048036038101906101649190610d5c565b6105a4565b005b61018560048036038101906101809190610c78565b61072d565b005b6000600560008373ffffffffffffffffffffffffffffffffffffffff1673ffffffffffffffffffffffffffffffffffffffff1681526020019081526020016000205411610209576040517f08c379a000000000000000000000000000000000000000000000000000000000815260040161020090610e1f565b60405180910390fd5b6000600354600160009054906101000a900473ffffffffffffffffffffffffffffffffffffffff1673ffffffffffffffffffffffffffffffffffffffff166370a08231306040518263ffffffff1660e01b81526004016102699190610d41565b602060405180830381865afa158015610286573d6000803e3d6000fd5b505050506040513d601f19601f820116820180604052508101906102aa9190610e54565b6102b49190610eb0565b90506000600660008473ffffffffffffffffffffffffffffffffffffffff1673ffffffffffffffffffffffffffffffffffffffff16815260200190815260200160002054600254600560008673ffffffffffffffffffffffffffffffffffffffff1673ffffffffffffffffffffffffffffffffffffffff16815260200190815260200160002054846103469190610ee4565b6103509190610f55565b61035a9190610f86565b90506000810361039f576040517f08c379a00000000000000000000000000000000000000000000000000000000081526004016103969061102c565b60405180910390fd5b80600660008573ffffffffffffffffffffffffffffffffffffffff1673ffffffffffffffffffffffffffffffffffffffff168152602001908152602001600020546103ea9190610eb0565b600660008573ffffffffffffffffffffffffffffffffffffffff1673ffffffffffffffffffffffffffffffffffffffff168152602001908152602001600020819055508060035461043b9190610eb0565b60038190555061048e8382600160009054906101000a900473ffffffffffffffffffffffffffffffffffffffff1673ffffffffffffffffffffffffffffffffffffffff166107b09092919063ffffffff16565b7fdf20fd1e76bc69d672e4814fafb2c449bba3a5369d8359adf9e05e6fde87b05683826040516104bf92919061104c565b60405180910390a1505050565b6000600254905090565b6104de610836565b6104e860006108b4565b565b600060048281548110610500576104ff611075565b5b9060005260206000200160009054906101000a900473ffffffffffffffffffffffffffffffffffffffff169050919050565b60008060009054906101000a900473ffffffffffffffffffffffffffffffffffffffff16905090565b6000600560008373ffffffffffffffffffffffffffffffffffffffff1673ffffffffffffffffffffffffffffffffffffffff168152602001908152602001600020549050919050565b6105ac610836565b600160009054906101000a900473ffffffffffffffffffffffffffffffffffffffff1673ffffffffffffffffffffffffffffffffffffffff168173ffffffffffffffffffffffffffffffffffffffff160361063c576040517f08c379a000000000000000000000000000000000000000000000000000000000815260040161063390611116565b60405180910390fd5b60008173ffffffffffffffffffffffffffffffffffffffff166370a08231306040518263ffffffff1660e01b81526004016106779190610d41565b602060405180830381865afa158015610694573d6000803e3d6000fd5b505050506040513d601f19601f820116820180604052508101906106b89190610e54565b9050600081116106fd576040517f08c379a00000000000000000000000000000000000000000000000000000000081526004016106f4906111a8565b60405180910390fd5b61072883828473ffffffffffffffffffffffffffffffffffffffff166107b09092919063ffffffff16565b505050565b610735610836565b600073ffffffffffffffffffffffffffffffffffffffff168173ffffffffffffffffffffffffffffffffffffffff16036107a4576040517f08c379a000000000000000000000000000000000000000000000000000000000815260040161079b9061123a565b60405180910390fd5b6107ad816108b4565b50565b6108318363a9059cbb60e01b84846040516024016107cf92919061104c565b604051602081830303815290604052907bffffffffffffffffffffffffffffffffffffffffffffffffffffffff19166020820180517bffffffffffffffffffffffffffffffffffffffffffffffffffffffff8381831617835250505050610978565b505050565b61083e610a40565b73ffffffffffffffffffffffffffffffffffffffff1661085c610532565b73ffffffffffffffffffffffffffffffffffffffff16146108b2576040517f08c379a00000000000000000000000000000000000000000000000000000000081526004016108a9906112a6565b60405180910390fd5b565b60008060009054906101000a900473ffffffffffffffffffffffffffffffffffffffff169050816000806101000a81548173ffffffffffffffffffffffffffffffffffffffff021916908373ffffffffffffffffffffffffffffffffffffffff1602179055508173ffffffffffffffffffffffffffffffffffffffff168173ffffffffffffffffffffffffffffffffffffffff167f8be0079c531659141344cd1fd0a4f28419497f9722a3daafe3b4186f6b6457e060405160405180910390a35050565b60006109da826040518060400160405280602081526020017f5361666545524332303a206c6f772d6c6576656c2063616c6c206661696c65648152508573ffffffffffffffffffffffffffffffffffffffff16610a489092919063ffffffff16565b90506000815114806109fc5750808060200190518101906109fb91906112fe565b5b610a3b576040517f08c379a0000000000000000000000000000000000000000000000000000000008152600401610a329061139d565b60405180910390fd5b505050565b600033905090565b6060610a578484600085610a60565b90509392505050565b606082471015610aa5576040517f08c379a0000000000000000000000000000000000000000000000000000000008152600401610a9c9061142f565b60405180910390fd5b6000808673ffffffffffffffffffffffffffffffffffffffff168587604051610ace91906114c0565b60006040518083038185875af1925050503d8060008114610b0b576040519150601f19603f3d011682016040523d82523d6000602084013e610b10565b606091505b5091509150610b2187838387610b2d565b92505050949350505050565b60608315610b8f576000835103610b8757610b4785610ba2565b610b86576040517f08c379a0000000000000000000000000000000000000000000000000000000008152600401610b7d90611523565b60405180910390fd5b5b829050610b9a565b610b998383610bc5565b5b949350505050565b6000808273ffffffffffffffffffffffffffffffffffffffff163b119050919050565b600082511115610bd85781518083602001fd5b806040517f08c379a0000000000000000000000000000000000000000000000000000000008152600401610c0c9190611598565b60405180910390fd5b600080fd5b600073ffffffffffffffffffffffffffffffffffffffff82169050919050565b6000610c4582610c1a565b9050919050565b610c5581610c3a565b8114610c6057600080fd5b50565b600081359050610c7281610c4c565b92915050565b600060208284031215610c8e57610c8d610c15565b5b6000610c9c84828501610c63565b91505092915050565b6000819050919050565b610cb881610ca5565b82525050565b6000602082019050610cd36000830184610caf565b92915050565b610ce281610ca5565b8114610ced57600080fd5b50565b600081359050610cff81610cd9565b92915050565b600060208284031215610d1b57610d1a610c15565b5b6000610d2984828501610cf0565b91505092915050565b610d3b81610c3a565b82525050565b6000602082019050610d566000830184610d32565b92915050565b60008060408385031215610d7357610d72610c15565b5b6000610d8185828601610c63565b9250506020610d9285828601610c63565b9150509250929050565b600082825260208201905092915050565b7f546f6b656e5061796d656e7453706c69747465723a206163636f756e7420686160008201527f73206e6f20736861726573000000000000000000000000000000000000000000602082015250565b6000610e09602b83610d9c565b9150610e1482610dad565b604082019050919050565b60006020820190508181036000830152610e3881610dfc565b9050919050565b600081519050610e4e81610cd9565b92915050565b600060208284031215610e6a57610e69610c15565b5b6000610e7884828501610e3f565b91505092915050565b7f4e487b7100000000000000000000000000000000000000000000000000000000600052601160045260246000fd5b6000610ebb82610ca5565b9150610ec683610ca5565b9250828201905080821115610ede57610edd610e81565b5b92915050565b6000610eef82610ca5565b9150610efa83610ca5565b9250828202610f0881610ca5565b91508282048414831517610f1f57610f1e610e81565b5b5092915050565b7f4e487b7100000000000000000000000000000000000000000000000000000000600052601260045260246000fd5b6000610f6082610ca5565b9150610f6b83610ca5565b925082610f7b57610f7a610f26565b5b828204905092915050565b6000610f9182610ca5565b9150610f9c83610ca5565b9250828203905081811115610fb457610fb3610e81565b5b92915050565b7f546f6b656e5061796d656e7453706c69747465723a206163636f756e7420697360008201527f206e6f7420647565207061796d656e7400000000000000000000000000000000602082015250565b6000611016603083610d9c565b915061102182610fba565b604082019050919050565b6000602082019050818103600083015261104581611009565b9050919050565b60006040820190506110616000830185610d32565b61106e6020830184610caf565b9392505050565b7f4e487b7100000000000000000000000000000000000000000000000000000000600052603260045260246000fd5b7f4d6f636b506f6f6c3a20546f6b656e20746f20647261696e206973205061796d60008201527f656e74546f6b656e000000000000000000000000000000000000000000000000602082015250565b6000611100602883610d9c565b915061110b826110a4565b604082019050919050565b6000602082019050818103600083015261112f816110f3565b9050919050565b7f4d6f636b506f6f6c3a20546f6b656e20746f20647261696e2062616c616e636560008201527f2069732030000000000000000000000000000000000000000000000000000000602082015250565b6000611192602583610d9c565b915061119d82611136565b604082019050919050565b600060208201905081810360008301526111c181611185565b9050919050565b7f4f776e61626c653a206e6577206f776e657220697320746865207a65726f206160008201527f6464726573730000000000000000000000000000000000000000000000000000602082015250565b6000611224602683610d9c565b915061122f826111c8565b604082019050919050565b6000602082019050818103600083015261125381611217565b9050919050565b7f4f776e61626c653a2063616c6c6572206973206e6f7420746865206f776e6572600082015250565b6000611290602083610d9c565b915061129b8261125a565b602082019050919050565b600060208201905081810360008301526112bf81611283565b9050919050565b60008115159050919050565b6112db816112c6565b81146112e657600080fd5b50565b6000815190506112f8816112d2565b92915050565b60006020828403121561131457611313610c15565b5b6000611322848285016112e9565b91505092915050565b7f5361666545524332303a204552433230206f7065726174696f6e20646964206e60008201527f6f74207375636365656400000000000000000000000000000000000000000000602082015250565b6000611387602a83610d9c565b91506113928261132b565b604082019050919050565b600060208201905081810360008301526113b68161137a565b9050919050565b7f416464726573733a20696e73756666696369656e742062616c616e636520666f60008201527f722063616c6c0000000000000000000000000000000000000000000000000000602082015250565b6000611419602683610d9c565b9150611424826113bd565b604082019050919050565b600060208201905081810360008301526114488161140c565b9050919050565b600081519050919050565b600081905092915050565b60005b83811015611483578082015181840152602081019050611468565b60008484015250505050565b600061149a8261144f565b6114a4818561145a565b93506114b4818560208601611465565b80840191505092915050565b60006114cc828461148f565b915081905092915050565b7f416464726573733a2063616c6c20746f206e6f6e2d636f6e7472616374000000600082015250565b600061150d601d83610d9c565b9150611518826114d7565b602082019050919050565b6000602082019050818103600083015261153c81611500565b9050919050565b600081519050919050565b6000601f19601f8301169050919050565b600061156a82611543565b6115748185610d9c565b9350611584818560208601611465565b61158d8161154e565b840191505092915050565b600060208201905081810360008301526115b2818461155f565b90509291505056fea26469706673582212204fbf8e119132a378fa35fc55066380db430cef780b0b7eb09db5f71e70c3822564736f6c63430008130033",
  "linkReferences": {},
  "deployedLinkReferences": {}
}